{
  "abi": [
    {
      "inputs": [
        {
          "internalType": "address",
          "name": "_usdcToken",
          "type": "address"
        },
        {
          "internalType": "address",
          "name": "_platformTreasury",
          "type": "address"
        }
      ],
      "stateMutability": "nonpayable",
      "type": "constructor"
    },
    {
      "inputs": [],
      "name": "InsufficientFunds",
      "type": "error"
    },
    {
      "inputs": [],
      "name": "InvalidPoll",
      "type": "error"
    },
    {
      "inputs": [],
      "name": "NullifierHashAlreadyUsed",
      "type": "error"
    },
    {
      "inputs": [
        {
          "internalType": "address",
          "name": "owner",
          "type": "address"
        }
      ],
      "name": "OwnableInvalidOwner",
      "type": "error"
    },
    {
      "inputs": [
        {
          "internalType": "address",
          "name": "account",
          "type": "address"
        }
      ],
      "name": "OwnableUnauthorizedAccount",
      "type": "error"
    },
    {
      "inputs": [],
      "name": "PollExceededMaxCompletions",
      "type": "error"
    },
    {
      "inputs": [],
      "name": "PollNotActive",
      "type": "error"
    },
    {
      "inputs": [],
      "name": "ReentrancyGuardReentrantCall",
      "type": "error"
    },
    {
      "inputs": [
        {
          "internalType": "address",
          "name": "token",
          "type": "address"
        }
      ],
      "name": "SafeERC20FailedOperation",
      "type": "error"
    },
    {
      "inputs": [],
      "name": "TransferFailed",
      "type": "error"
    },
    {
      "anonymous": false,
      "inputs": [
        {
          "indexed": true,
          "internalType": "address",
          "name": "previousOwner",
          "type": "address"
        },
        {
          "indexed": true,
          "internalType": "address",
          "name": "newOwner",
          "type": "address"
        }
      ],
      "name": "OwnershipTransferred",
      "type": "event"
    },
    {
      "anonymous": false,
      "inputs": [
        {
          "indexed": true,
          "internalType": "uint256",
          "name": "pollId",
          "type": "uint256"
        }
      ],
      "name": "PollClosed",
      "type": "event"
    },
    {
      "anonymous": false,
      "inputs": [
        {
          "indexed": true,
          "internalType": "uint256",
          "name": "pollId",
          "type": "uint256"
        },
        {
          "indexed": true,
          "internalType": "address",
          "name": "participant",
          "type": "address"
        },
        {
          "indexed": false,
          "internalType": "uint256",
          "name": "userPayout",
          "type": "uint256"
        },
        {
          "indexed": false,
          "internalType": "uint256",
          "name": "platformFee",
          "type": "uint256"
        },
        {
          "indexed": false,
          "internalType": "bytes32",
          "name": "nullifierHash",
          "type": "bytes32"
        }
      ],
      "name": "PollCompleted",
      "type": "event"
    },
    {
      "anonymous": false,
      "inputs": [
        {
          "indexed": true,
          "internalType": "uint256",
          "name": "pollId",
          "type": "uint256"
        },
        {
          "indexed": true,
          "internalType": "address",
          "name": "creator",
          "type": "address"
        },
        {
          "indexed": false,
          "internalType": "uint256",
          "name": "rewardPool",
          "type": "uint256"
        },
        {
          "indexed": false,
          "internalType": "uint256",
          "name": "rewardPerUser",
          "type": "uint256"
        },
        {
          "indexed": false,
          "internalType": "uint256",
          "name": "maxCompletions",
          "type": "uint256"
        }
      ],
      "name": "PollCreated",
      "type": "event"
    },
    {
      "inputs": [],
      "name": "BPS_DENOMINATOR",
      "outputs": [
        {
          "internalType": "uint256",
          "name": "",
          "type": "uint256"
        }
      ],
      "stateMutability": "view",
      "type": "function"
    },
    {
      "inputs": [],
      "name": "PLATFORM_FEE_BPS",
      "outputs": [
        {
          "internalType": "uint256",
          "name": "",
          "type": "uint256"
        }
      ],
      "stateMutability": "view",
      "type": "function"
    },
    {
      "inputs": [
        {
          "internalType": "uint256",
          "name": "_pollId",
          "type": "uint256"
        }
      ],
      "name": "closePoll",
      "outputs": [],
      "stateMutability": "nonpayable",
      "type": "function"
    },
    {
      "inputs": [
        {
          "internalType": "uint256",
          "name": "_pollId",
          "type": "uint256"
        },
        {
          "internalType": "bytes32",
          "name": "_nullifierHash",
          "type": "bytes32"
        }
      ],
      "name": "completePoll",
      "outputs": [],
      "stateMutability": "nonpayable",
      "type": "function"
    },
    {
      "inputs": [
        {
          "internalType": "uint256",
          "name": "_rewardPool",
          "type": "uint256"
        },
        {
          "internalType": "uint256",
          "name": "_rewardPerUser",
          "type": "uint256"
        },
        {
          "internalType": "uint256",
          "name": "_maxCompletions",
          "type": "uint256"
        }
      ],
      "name": "createPoll",
      "outputs": [
        {
          "internalType": "uint256",
          "name": "",
          "type": "uint256"
        }
      ],
      "stateMutability": "nonpayable",
      "type": "function"
    },
    {
      "inputs": [],
      "name": "getPollCounter",
      "outputs": [
        {
          "internalType": "uint256",
          "name": "",
          "type": "uint256"
        }
      ],
      "stateMutability": "view",
      "type": "function"
    },
    {
      "inputs": [
        {
          "internalType": "uint256",
          "name": "_pollId",
          "type": "uint256"
        }
      ],
      "name": "getPollInfo",
      "outputs": [
        {
          "internalType": "address",
          "name": "creator",
          "type": "address"
        },
        {
          "internalType": "uint256",
          "name": "rewardPool",
          "type": "uint256"
        },
        {
          "internalType": "uint256",
          "name": "rewardPerUser",
          "type": "uint256"
        },
        {
          "internalType": "uint256",
          "name": "completedCount",
          "type": "uint256"
        },
        {
          "internalType": "uint256",
          "name": "maxCompletions",
          "type": "uint256"
        },
        {
          "internalType": "bool",
          "name": "isActive",
          "type": "bool"
        }
      ],
      "stateMutability": "view",
      "type": "function"
    },
    {
      "inputs": [
        {
          "internalType": "uint256",
          "name": "_pollId",
          "type": "uint256"
        },
        {
          "internalType": "bytes32",
          "name": "_nullifierHash",
          "type": "bytes32"
        }
      ],
      "name": "isNullifierHashUsed",
      "outputs": [
        {
          "internalType": "bool",
          "name": "",
          "type": "bool"
        }
      ],
      "stateMutability": "view",
      "type": "function"
    },
    {
      "inputs": [],
      "name": "owner",
      "outputs": [
        {
          "internalType": "address",
          "name": "",
          "type": "address"
        }
      ],
      "stateMutability": "view",
      "type": "function"
    },
    {
      "inputs": [],
      "name": "platformTreasury",
      "outputs": [
        {
          "internalType": "address",
          "name": "",
          "type": "address"
        }
      ],
      "stateMutability": "view",
      "type": "function"
    },
    {
      "inputs": [
        {
          "internalType": "uint256",
          "name": "",
          "type": "uint256"
        }
      ],
      "name": "polls",
      "outputs": [
        {
          "internalType": "address",
          "name": "creator",
          "type": "address"
        },
        {
          "internalType": "uint256",
          "name": "rewardPool",
          "type": "uint256"
        },
        {
          "internalType": "uint256",
          "name": "rewardPerUser",
          "type": "uint256"
        },
        {
          "internalType": "uint256",
          "name": "completedCount",
          "type": "uint256"
        },
        {
          "internalType": "uint256",
          "name": "maxCompletions",
          "type": "uint256"
        },
        {
          "internalType": "bool",
          "name": "isActive",
          "type": "bool"
        }
      ],
      "stateMutability": "view",
      "type": "function"
    },
    {
      "inputs": [],
      "name": "renounceOwnership",
      "outputs": [],
      "stateMutability": "nonpayable",
      "type": "function"
    },
    {
      "inputs": [
        {
          "internalType": "address",
          "name": "newOwner",
          "type": "address"
        }
      ],
      "name": "transferOwnership",
      "outputs": [],
      "stateMutability": "nonpayable",
      "type": "function"
    },
    {
      "inputs": [],
      "name": "usdcToken",
      "outputs": [
        {
          "internalType": "contract IERC20",
          "name": "",
          "type": "address"
        }
      ],
      "stateMutability": "view",
      "type": "function"
    }
  ],
  "devdoc": {
    "details": "Platform fee is 10%, user receives 90%",
    "errors": {
      "OwnableInvalidOwner(address)": [
        {
          "details": "The owner is not a valid owner account. (eg. `address(0)`)"
        }
      ],
      "OwnableUnauthorizedAccount(address)": [
        {
          "details": "The caller account is not authorized to perform an operation."
        }
      ],
      "ReentrancyGuardReentrantCall()": [
        {
          "details": "Unauthorized reentrant call."
        }
      ],
      "SafeERC20FailedOperation(address)": [
        {
          "details": "An operation with an ERC-20 token failed."
        }
      ]
    },
    "kind": "dev",
    "methods": {
      "closePoll(uint256)": {
        "params": {
          "_pollId": "The ID of the poll to close"
        }
      },
      "completePoll(uint256,bytes32)": {
        "details": "Platform receives 10%, user receives 90%",
        "params": {
          "_nullifierHash": "The World ID nullifier hash (prevents double-voting)",
          "_pollId": "The ID of the poll to complete"
        }
      },
      "createPoll(uint256,uint256,uint256)": {
        "params": {
          "_maxCompletions": "Maximum number of participants",
          "_rewardPerUser": "USDC amount per user completion",
          "_rewardPool": "Total USDC amount to escrow"
        },
        "returns": {
          "_0": "pollId The ID of the newly created poll"
        }
      },
      "getPollCounter()": {
        "returns": {
          "_0": "The total number of polls created"
        }
      },
      "getPollInfo(uint256)": {
        "params": {
          "_pollId": "The ID of the poll"
        },
        "returns": {
          "completedCount": "Number of completions",
          "creator": "The address of the poll creator",
          "isActive": "Whether the poll is active",
          "maxCompletions": "Maximum number of participants",
          "rewardPerUser": "USDC reward per completion",
          "rewardPool": "Total USDC in escrow"
        }
      },
      "isNullifierHashUsed(uint256,bytes32)": {
        "params": {
          "_nullifierHash": "The nullifier hash to check",
          "_pollId": "The ID of the poll"
        },
        "returns": {
          "_0": "Whether the nullifier hash has been used"
        }
      },
      "owner()": {
        "details": "Returns the address of the current owner."
      },
      "renounceOwnership()": {
        "details": "Leaves the contract without owner. It will not be possible to call `onlyOwner` functions. Can only be called by the current owner. NOTE: Renouncing ownership will leave the contract without an owner, thereby disabling any functionality that is only available to the owner."
      },
      "transferOwnership(address)": {
        "details": "Transfers ownership of the contract to a new account (`newOwner`). Can only be called by the current owner."
      }
    },
    "title": "PollEscrow",
    "version": 1
  },
  "evm": {
    "assembly": "    /* \"PollEscrow.sol\":451:7545  contract PollEscrow is ReentrancyGuard, Ownable {... */\n  mstore(0x40, 0xc0)\n    /* \"PollEscrow.sol\":2154:2480  constructor(address _usdcToken, address _platformTreasury) Ownable(msg.sender) {... */\n  callvalue\n  dup1\n  iszero\n  tag_1\n  jumpi\n  0x00\n  dup1\n  revert\ntag_1:\n  pop\n  mload(0x40)\n  sub(codesize, bytecodeSize)\n  dup1\n  bytecodeSize\n  dup4\n  codecopy\n  dup2\n  add\n  0x40\n  dup2\n  swap1\n  mstore\n  tag_2\n  swap2\n  tag_3\n  jump\t// in\ntag_2:\n    /* \"@openzeppelin/contracts/utils/ReentrancyGuard.sol\":1857:1858   */\n  0x01\n    /* \"@openzeppelin/contracts/utils/ReentrancyGuard.sol\":2061:2068   */\n  0x00\n    /* \"@openzeppelin/contracts/utils/ReentrancyGuard.sol\":2061:2082   */\n  sstore\n    /* \"PollEscrow.sol\":2221:2231  msg.sender */\n  caller\n  dup1\n    /* \"@openzeppelin/contracts/access/Ownable.sol\":1269:1364   */\n  tag_9\n  jumpi\n    /* \"@openzeppelin/contracts/access/Ownable.sol\":1322:1353   */\n  mload(0x40)\n  shl(0xe0, 0x1e4fbdf7)\n  dup2\n  mstore\n    /* \"@openzeppelin/contracts/access/Ownable.sol\":1350:1351   */\n  0x00\n    /* \"@openzeppelin/contracts/access/Ownable.sol\":1322:1353   */\n  0x04\n  dup3\n  add\n    /* \"#utility.yul\":640:691   */\n  mstore\n    /* \"#utility.yul\":613:631   */\n  0x24\n  add\n    /* \"@openzeppelin/contracts/access/Ownable.sol\":1322:1353   */\ntag_10:\n  mload(0x40)\n  dup1\n  swap2\n  sub\n  swap1\n  revert\n    /* \"@openzeppelin/contracts/access/Ownable.sol\":1269:1364   */\ntag_9:\n    /* \"@openzeppelin/contracts/access/Ownable.sol\":1373:1405   */\n  tag_12\n    /* \"@openzeppelin/contracts/access/Ownable.sol\":1392:1404   */\n  dup2\n    /* \"@openzeppelin/contracts/access/Ownable.sol\":1373:1391   */\n  tag_13\n    /* \"@openzeppelin/contracts/access/Ownable.sol\":1373:1405   */\n  jump\t// in\ntag_12:\n  pop\n  sub(shl(0xa0, 0x01), 0x01)\n    /* \"PollEscrow.sol\":2251:2275  _usdcToken != address(0) */\n  dup3\n  and\n    /* \"PollEscrow.sol\":2243:2300  require(_usdcToken != address(0), \"Invalid USDC address\") */\n  tag_15\n  jumpi\n  mload(0x40)\n  shl(0xe5, 0x461bcd)\n  dup2\n  mstore\n    /* \"#utility.yul\":904:906   */\n  0x20\n    /* \"PollEscrow.sol\":2243:2300  require(_usdcToken != address(0), \"Invalid USDC address\") */\n  0x04\n  dup3\n  add\n    /* \"#utility.yul\":886:907   */\n  mstore\n    /* \"#utility.yul\":943:945   */\n  0x14\n    /* \"#utility.yul\":923:941   */\n  0x24\n  dup3\n  add\n    /* \"#utility.yul\":916:946   */\n  mstore\n    /* \"#utility.yul\":982:1004   */\n  0x496e76616c696420555344432061646472657373000000000000000000000000\n    /* \"#utility.yul\":962:980   */\n  0x44\n  dup3\n  add\n    /* \"#utility.yul\":955:1005   */\n  mstore\n    /* \"#utility.yul\":1022:1040   */\n  0x64\n  add\n    /* \"PollEscrow.sol\":2243:2300  require(_usdcToken != address(0), \"Invalid USDC address\") */\n  tag_10\n    /* \"#utility.yul\":702:1046   */\n  jump\n    /* \"PollEscrow.sol\":2243:2300  require(_usdcToken != address(0), \"Invalid USDC address\") */\ntag_15:\n  sub(shl(0xa0, 0x01), 0x01)\n    /* \"PollEscrow.sol\":2318:2349  _platformTreasury != address(0) */\n  dup2\n  and\n    /* \"PollEscrow.sol\":2310:2378  require(_platformTreasury != address(0), \"Invalid treasury address\") */\n  tag_18\n  jumpi\n  mload(0x40)\n  shl(0xe5, 0x461bcd)\n  dup2\n  mstore\n    /* \"#utility.yul\":1253:1255   */\n  0x20\n    /* \"PollEscrow.sol\":2310:2378  require(_platformTreasury != address(0), \"Invalid treasury address\") */\n  0x04\n  dup3\n  add\n    /* \"#utility.yul\":1235:1256   */\n  mstore\n    /* \"#utility.yul\":1292:1294   */\n  0x18\n    /* \"#utility.yul\":1272:1290   */\n  0x24\n  dup3\n  add\n    /* \"#utility.yul\":1265:1295   */\n  mstore\n    /* \"#utility.yul\":1331:1357   */\n  0x496e76616c696420747265617375727920616464726573730000000000000000\n    /* \"#utility.yul\":1311:1329   */\n  0x44\n  dup3\n  add\n    /* \"#utility.yul\":1304:1358   */\n  mstore\n    /* \"#utility.yul\":1375:1393   */\n  0x64\n  add\n    /* \"PollEscrow.sol\":2310:2378  require(_platformTreasury != address(0), \"Invalid treasury address\") */\n  tag_10\n    /* \"#utility.yul\":1051:1399   */\n  jump\n    /* \"PollEscrow.sol\":2310:2378  require(_platformTreasury != address(0), \"Invalid treasury address\") */\ntag_18:\n  sub(shl(0xa0, 0x01), 0x01)\n    /* \"PollEscrow.sol\":2397:2427  usdcToken = IERC20(_usdcToken) */\n  swap2\n  dup3\n  and\n  0x80\n  mstore\n    /* \"PollEscrow.sol\":2437:2473  platformTreasury = _platformTreasury */\n  and\n  0xa0\n  mstore\n    /* \"PollEscrow.sol\":451:7545  contract PollEscrow is ReentrancyGuard, Ownable {... */\n  jump(tag_24)\n    /* \"@openzeppelin/contracts/access/Ownable.sol\":2912:3099   */\ntag_13:\n    /* \"@openzeppelin/contracts/access/Ownable.sol\":3004:3010   */\n  0x01\n  dup1\n  sload\n  sub(shl(0xa0, 0x01), 0x01)\n    /* \"@openzeppelin/contracts/access/Ownable.sol\":3020:3037   */\n  dup4\n  dup2\n  and\n  not(sub(shl(0xa0, 0x01), 0x01))\n  dup4\n  and\n  dup2\n  or\n  swap1\n  swap4\n  sstore\n    /* \"@openzeppelin/contracts/access/Ownable.sol\":3052:3092   */\n  mload(0x40)\n    /* \"@openzeppelin/contracts/access/Ownable.sol\":3004:3010   */\n  swap2\n  and\n  swap2\n    /* \"@openzeppelin/contracts/access/Ownable.sol\":3020:3037   */\n  swap1\n    /* \"@openzeppelin/contracts/access/Ownable.sol\":3004:3010   */\n  dup3\n  swap1\n    /* \"@openzeppelin/contracts/access/Ownable.sol\":3052:3092   */\n  0x8be0079c531659141344cd1fd0a4f28419497f9722a3daafe3b4186f6b6457e0\n  swap1\n    /* \"@openzeppelin/contracts/access/Ownable.sol\":2985:3001   */\n  0x00\n  swap1\n    /* \"@openzeppelin/contracts/access/Ownable.sol\":3052:3092   */\n  log3\n    /* \"@openzeppelin/contracts/access/Ownable.sol\":2975:3099   */\n  pop\n    /* \"@openzeppelin/contracts/access/Ownable.sol\":2912:3099   */\n  pop\n  jump\t// out\n    /* \"#utility.yul\":14:191   */\ntag_23:\n    /* \"#utility.yul\":93:106   */\n  dup1\n  mload\n  sub(shl(0xa0, 0x01), 0x01)\n    /* \"#utility.yul\":135:166   */\n  dup2\n  and\n    /* \"#utility.yul\":125:167   */\n  dup2\n  eq\n    /* \"#utility.yul\":115:185   */\n  tag_26\n  jumpi\n    /* \"#utility.yul\":181:182   */\n  0x00\n    /* \"#utility.yul\":178:179   */\n  dup1\n    /* \"#utility.yul\":171:183   */\n  revert\n    /* \"#utility.yul\":115:185   */\ntag_26:\n    /* \"#utility.yul\":14:191   */\n  swap2\n  swap1\n  pop\n  jump\t// out\n    /* \"#utility.yul\":196:489   */\ntag_3:\n    /* \"#utility.yul\":275:281   */\n  0x00\n    /* \"#utility.yul\":283:289   */\n  dup1\n    /* \"#utility.yul\":336:338   */\n  0x40\n    /* \"#utility.yul\":324:333   */\n  dup4\n    /* \"#utility.yul\":315:322   */\n  dup6\n    /* \"#utility.yul\":311:334   */\n  sub\n    /* \"#utility.yul\":307:339   */\n  slt\n    /* \"#utility.yul\":304:356   */\n  iszero\n  tag_28\n  jumpi\n    /* \"#utility.yul\":352:353   */\n  0x00\n    /* \"#utility.yul\":349:350   */\n  dup1\n    /* \"#utility.yul\":342:354   */\n  revert\n    /* \"#utility.yul\":304:356   */\ntag_28:\n    /* \"#utility.yul\":375:415   */\n  tag_29\n    /* \"#utility.yul\":405:414   */\n  dup4\n    /* \"#utility.yul\":375:415   */\n  tag_23\n  jump\t// in\ntag_29:\n    /* \"#utility.yul\":365:415   */\n  swap2\n  pop\n    /* \"#utility.yul\":434:483   */\n  tag_30\n    /* \"#utility.yul\":479:481   */\n  0x20\n    /* \"#utility.yul\":468:477   */\n  dup5\n    /* \"#utility.yul\":464:482   */\n  add\n    /* \"#utility.yul\":434:483   */\n  tag_23\n  jump\t// in\ntag_30:\n    /* \"#utility.yul\":424:483   */\n  swap1\n  pop\n    /* \"#utility.yul\":196:489   */\n  swap3\n  pop\n  swap3\n  swap1\n  pop\n  jump\t// out\n    /* \"#utility.yul\":1051:1399   */\ntag_24:\n    /* \"PollEscrow.sol\":451:7545  contract PollEscrow is ReentrancyGuard, Ownable {... */\n  mload(0x80)\n  mload(0xa0)\n  codecopy(0x00, dataOffset(sub_0), dataSize(sub_0))\n  0x00\n  assignImmutable(\"0x81e080ffc23e8b8d44dd829bc823229e92b893eb1d8f624419d3f5682eb97fc3\")\n  0x00\n  assignImmutable(\"0x1572b593c53d839d80004aa4b8c51211864104f06ace9e22be9c4365b50655ea\")\n  return(0x00, dataSize(sub_0))\nstop\n\nsub_0: assembly {\n        /* \"PollEscrow.sol\":451:7545  contract PollEscrow is ReentrancyGuard, Ownable {... */\n      mstore(0x40, 0x80)\n      callvalue\n      dup1\n      iszero\n      tag_1\n      jumpi\n      0x00\n      dup1\n      revert\n    tag_1:\n      pop\n      jumpi(tag_2, lt(calldatasize, 0x04))\n      shr(0xe0, calldataload(0x00))\n      dup1\n      0xac2f0074\n      gt\n      tag_17\n      jumpi\n      dup1\n      0xe138818c\n      gt\n      tag_18\n      jumpi\n      dup1\n      0xe138818c\n      eq\n      tag_13\n      jumpi\n      dup1\n      0xe1a45218\n      eq\n      tag_14\n      jumpi\n      dup1\n      0xecde1e00\n      eq\n      tag_15\n      jumpi\n      dup1\n      0xf2fde38b\n      eq\n      tag_16\n      jumpi\n      0x00\n      dup1\n      revert\n    tag_18:\n      dup1\n      0xac2f0074\n      eq\n      tag_10\n      jumpi\n      dup1\n      0xde78433f\n      eq\n      tag_11\n      jumpi\n      dup1\n      0xdf4db868\n      eq\n      tag_12\n      jumpi\n      0x00\n      dup1\n      revert\n    tag_17:\n      dup1\n      0x539aa77f\n      gt\n      tag_19\n      jumpi\n      dup1\n      0x539aa77f\n      eq\n      tag_6\n      jumpi\n      dup1\n      0x715018a6\n      eq\n      tag_7\n      jumpi\n      dup1\n      0x8da5cb5b\n      eq\n      tag_8\n      jumpi\n      dup1\n      0x9534e637\n      eq\n      tag_9\n      jumpi\n      0x00\n      dup1\n      revert\n    tag_19:\n      dup1\n      0x11eac855\n      eq\n      tag_3\n      jumpi\n      dup1\n      0x29b8f44a\n      eq\n      tag_4\n      jumpi\n      dup1\n      0x51de23c5\n      eq\n      tag_5\n      jumpi\n    tag_2:\n      0x00\n      dup1\n      revert\n        /* \"PollEscrow.sol\":774:807  IERC20 public immutable usdcToken */\n    tag_3:\n      tag_20\n      immutable(\"0x1572b593c53d839d80004aa4b8c51211864104f06ace9e22be9c4365b50655ea\")\n      dup2\n      jump\n    tag_20:\n      mload(0x40)\n      sub(shl(0xa0, 0x01), 0x01)\n        /* \"#utility.yul\":192:247   */\n      swap1\n      swap2\n      and\n        /* \"#utility.yul\":174:248   */\n      dup2\n      mstore\n        /* \"#utility.yul\":162:164   */\n      0x20\n        /* \"#utility.yul\":147:165   */\n      add\n        /* \"PollEscrow.sol\":774:807  IERC20 public immutable usdcToken */\n    tag_22:\n      mload(0x40)\n      dup1\n      swap2\n      sub\n      swap1\n      return\n        /* \"PollEscrow.sol\":5921:6473  function getPollInfo(uint256 _pollId)... */\n    tag_4:\n      tag_24\n      tag_25\n      calldatasize\n      0x04\n      tag_26\n      jump\t// in\n    tag_25:\n        /* \"PollEscrow.sol\":6019:6034  address creator */\n      0x00\n        /* \"PollEscrow.sol\":6245:6259  polls[_pollId] */\n      swap1\n      dup2\n      mstore\n        /* \"PollEscrow.sol\":6245:6250  polls */\n      0x03\n        /* \"PollEscrow.sol\":6245:6259  polls[_pollId] */\n      0x20\n      dup2\n      swap1\n      mstore\n      0x40\n      swap1\n      swap2\n      keccak256\n        /* \"PollEscrow.sol\":6290:6302  poll.creator */\n      dup1\n      sload\n      0x01\n        /* \"PollEscrow.sol\":6316:6331  poll.rewardPool */\n      dup3\n      add\n      sload\n        /* \"PollEscrow.sol\":6345:6363  poll.rewardPerUser */\n      0x02\n      dup4\n      add\n      sload\n        /* \"PollEscrow.sol\":6377:6396  poll.completedCount */\n      swap4\n      dup4\n      add\n      sload\n        /* \"PollEscrow.sol\":6410:6429  poll.maxCompletions */\n      0x04\n      dup5\n      add\n      sload\n        /* \"PollEscrow.sol\":6443:6456  poll.isActive */\n      0x05\n      swap1\n      swap5\n      add\n      sload\n      sub(shl(0xa0, 0x01), 0x01)\n        /* \"PollEscrow.sol\":6290:6302  poll.creator */\n      swap1\n      swap4\n      and\n      swap6\n        /* \"PollEscrow.sol\":6316:6331  poll.rewardPool */\n      swap2\n      swap5\n        /* \"PollEscrow.sol\":6345:6363  poll.rewardPerUser */\n      swap4\n        /* \"PollEscrow.sol\":6377:6396  poll.completedCount */\n      swap1\n      swap3\n        /* \"PollEscrow.sol\":6410:6429  poll.maxCompletions */\n      swap1\n      swap2\n        /* \"PollEscrow.sol\":6443:6456  poll.isActive */\n      0xff\n      swap1\n      swap2\n      and\n      swap1\n        /* \"PollEscrow.sol\":5921:6473  function getPollInfo(uint256 _pollId)... */\n      jump\n    tag_24:\n      0x40\n      dup1\n      mload\n      sub(shl(0xa0, 0x01), 0x01)\n        /* \"#utility.yul\":743:798   */\n      swap1\n      swap8\n      and\n        /* \"#utility.yul\":725:799   */\n      dup8\n      mstore\n        /* \"#utility.yul\":830:832   */\n      0x20\n        /* \"#utility.yul\":815:833   */\n      dup8\n      add\n        /* \"#utility.yul\":808:842   */\n      swap6\n      swap1\n      swap6\n      mstore\n        /* \"#utility.yul\":858:876   */\n      swap4\n      dup6\n      add\n        /* \"#utility.yul\":851:885   */\n      swap3\n      swap1\n      swap3\n      mstore\n        /* \"#utility.yul\":916:918   */\n      0x60\n        /* \"#utility.yul\":901:919   */\n      dup5\n      add\n        /* \"#utility.yul\":894:928   */\n      mstore\n        /* \"#utility.yul\":959:962   */\n      0x80\n        /* \"#utility.yul\":944:963   */\n      dup4\n      add\n        /* \"#utility.yul\":937:972   */\n      mstore\n        /* \"#utility.yul\":1016:1030   */\n      iszero\n        /* \"#utility.yul\":1009:1031   */\n      iszero\n        /* \"#utility.yul\":1003:1006   */\n      0xa0\n        /* \"#utility.yul\":988:1007   */\n      dup3\n      add\n        /* \"#utility.yul\":981:1032   */\n      mstore\n        /* \"#utility.yul\":712:715   */\n      0xc0\n        /* \"#utility.yul\":697:716   */\n      add\n        /* \"PollEscrow.sol\":5921:6473  function getPollInfo(uint256 _pollId)... */\n      tag_22\n        /* \"#utility.yul\":444:1038   */\n      jump\n        /* \"PollEscrow.sol\":4043:5496  function completePoll(... */\n    tag_5:\n      tag_30\n      tag_31\n      calldatasize\n      0x04\n      tag_32\n      jump\t// in\n    tag_31:\n      tag_33\n      jump\t// in\n    tag_30:\n      stop\n        /* \"PollEscrow.sol\":586:633  uint256 public constant PLATFORM_FEE_BPS = 1000 */\n    tag_6:\n      tag_34\n        /* \"PollEscrow.sol\":629:633  1000 */\n      0x03e8\n        /* \"PollEscrow.sol\":586:633  uint256 public constant PLATFORM_FEE_BPS = 1000 */\n      dup2\n      jump\n    tag_34:\n      mload(0x40)\n        /* \"#utility.yul\":1442:1467   */\n      swap1\n      dup2\n      mstore\n        /* \"#utility.yul\":1430:1432   */\n      0x20\n        /* \"#utility.yul\":1415:1433   */\n      add\n        /* \"PollEscrow.sol\":586:633  uint256 public constant PLATFORM_FEE_BPS = 1000 */\n      tag_22\n        /* \"#utility.yul\":1296:1473   */\n      jump\n        /* \"@openzeppelin/contracts/access/Ownable.sol\":2293:2394   */\n    tag_7:\n      tag_30\n      tag_39\n      jump\t// in\n        /* \"@openzeppelin/contracts/access/Ownable.sol\":1638:1723   */\n    tag_8:\n        /* \"@openzeppelin/contracts/access/Ownable.sol\":1710:1716   */\n      and(sub(shl(0xa0, 0x01), 0x01), sload(0x01))\n        /* \"@openzeppelin/contracts/access/Ownable.sol\":1638:1723   */\n      jump(tag_20)\n        /* \"PollEscrow.sol\":7034:7330  function closePoll(uint256 _pollId) external {... */\n    tag_9:\n      tag_30\n      tag_45\n      calldatasize\n      0x04\n      tag_26\n      jump\t// in\n    tag_45:\n      tag_46\n      jump\t// in\n        /* \"PollEscrow.sol\":1342:1379  mapping(uint256 => Poll) public polls */\n    tag_10:\n      tag_24\n      tag_48\n      calldatasize\n      0x04\n      tag_26\n      jump\t// in\n    tag_48:\n      0x03\n      0x20\n      dup2\n      swap1\n      mstore\n      0x00\n      swap2\n      dup3\n      mstore\n      0x40\n      swap1\n      swap2\n      keccak256\n      dup1\n      sload\n      0x01\n      dup3\n      add\n      sload\n      0x02\n      dup4\n      add\n      sload\n      swap4\n      dup4\n      add\n      sload\n      0x04\n      dup5\n      add\n      sload\n      0x05\n      swap1\n      swap5\n      add\n      sload\n      sub(shl(0xa0, 0x01), 0x01)\n      swap1\n      swap4\n      and\n      swap5\n      swap2\n      swap4\n      swap2\n      swap3\n      swap1\n      swap2\n      swap1\n      0xff\n      and\n      dup7\n      jump\n        /* \"PollEscrow.sol\":2838:3774  function createPoll(... */\n    tag_11:\n      tag_34\n      tag_52\n      calldatasize\n      0x04\n      tag_53\n      jump\t// in\n    tag_52:\n      tag_54\n      jump\t// in\n        /* \"PollEscrow.sol\":6708:6905  function isNullifierHashUsed(uint256 _pollId, bytes32 _nullifierHash)... */\n    tag_12:\n      tag_56\n      tag_57\n      calldatasize\n      0x04\n      tag_32\n      jump\t// in\n    tag_57:\n      tag_58\n      jump\t// in\n    tag_56:\n      mload(0x40)\n        /* \"#utility.yul\":2195:2209   */\n      swap1\n      iszero\n        /* \"#utility.yul\":2188:2210   */\n      iszero\n        /* \"#utility.yul\":2170:2211   */\n      dup2\n      mstore\n        /* \"#utility.yul\":2158:2160   */\n      0x20\n        /* \"#utility.yul\":2143:2161   */\n      add\n        /* \"PollEscrow.sol\":6708:6905  function isNullifierHashUsed(uint256 _pollId, bytes32 _nullifierHash)... */\n      tag_22\n        /* \"#utility.yul\":2030:2217   */\n      jump\n        /* \"PollEscrow.sol\":813:854  address public immutable platformTreasury */\n    tag_13:\n      tag_20\n      immutable(\"0x81e080ffc23e8b8d44dd829bc823229e92b893eb1d8f624419d3f5682eb97fc3\")\n      dup2\n      jump\n        /* \"PollEscrow.sol\":666:713  uint256 public constant BPS_DENOMINATOR = 10000 */\n    tag_14:\n      tag_34\n        /* \"PollEscrow.sol\":708:713  10000 */\n      0x2710\n        /* \"PollEscrow.sol\":666:713  uint256 public constant BPS_DENOMINATOR = 10000 */\n      dup2\n      jump\n        /* \"PollEscrow.sol\":7449:7543  function getPollCounter() external view returns (uint256) {... */\n    tag_15:\n        /* \"PollEscrow.sol\":7524:7536  _pollCounter */\n      sload(0x02)\n        /* \"PollEscrow.sol\":7449:7543  function getPollCounter() external view returns (uint256) {... */\n      jump(tag_34)\n        /* \"@openzeppelin/contracts/access/Ownable.sol\":2543:2758   */\n    tag_16:\n      tag_30\n      tag_71\n      calldatasize\n      0x04\n      tag_72\n      jump\t// in\n    tag_71:\n      tag_73\n      jump\t// in\n        /* \"PollEscrow.sol\":4043:5496  function completePoll(... */\n    tag_33:\n        /* \"@openzeppelin/contracts/utils/ReentrancyGuard.sol\":2500:2521   */\n      tag_76\n        /* \"@openzeppelin/contracts/utils/ReentrancyGuard.sol\":2500:2519   */\n      tag_77\n        /* \"@openzeppelin/contracts/utils/ReentrancyGuard.sol\":2500:2521   */\n      jump\t// in\n    tag_76:\n        /* \"PollEscrow.sol\":4160:4177  Poll storage poll */\n      0x00\n        /* \"PollEscrow.sol\":4180:4194  polls[_pollId] */\n      dup3\n      dup2\n      mstore\n        /* \"PollEscrow.sol\":4180:4185  polls */\n      0x03\n        /* \"PollEscrow.sol\":4180:4194  polls[_pollId] */\n      0x20\n      mstore\n      0x40\n      swap1\n      keccak256\n        /* \"PollEscrow.sol\":4217:4229  poll.creator */\n      dup1\n      sload\n      sub(shl(0xa0, 0x01), 0x01)\n      and\n        /* \"PollEscrow.sol\":4213:4290  if (poll.creator == address(0)) {... */\n      tag_79\n      jumpi\n        /* \"PollEscrow.sol\":4266:4279  InvalidPoll() */\n      mload(0x40)\n      shl(0xe0, 0x27325ab7)\n      dup2\n      mstore\n      0x04\n      add\n      mload(0x40)\n      dup1\n      swap2\n      sub\n      swap1\n      revert\n        /* \"PollEscrow.sol\":4213:4290  if (poll.creator == address(0)) {... */\n    tag_79:\n        /* \"PollEscrow.sol\":4313:4326  poll.isActive */\n      0x05\n      dup2\n      add\n      sload\n      0xff\n      and\n        /* \"PollEscrow.sol\":4308:4375  if (!poll.isActive) {... */\n      tag_80\n      jumpi\n        /* \"PollEscrow.sol\":4349:4364  PollNotActive() */\n      mload(0x40)\n      shl(0xe1, 0x27fd0eed)\n      dup2\n      mstore\n      0x04\n      add\n      mload(0x40)\n      dup1\n      swap2\n      sub\n      swap1\n      revert\n        /* \"PollEscrow.sol\":4308:4375  if (!poll.isActive) {... */\n    tag_80:\n        /* \"PollEscrow.sol\":4420:4424  poll */\n      dup1\n        /* \"PollEscrow.sol\":4420:4439  poll.maxCompletions */\n      0x04\n      add\n      sload\n        /* \"PollEscrow.sol\":4397:4401  poll */\n      dup2\n        /* \"PollEscrow.sol\":4397:4416  poll.completedCount */\n      0x03\n      add\n      sload\n        /* \"PollEscrow.sol\":4397:4439  poll.completedCount >= poll.maxCompletions */\n      lt\n        /* \"PollEscrow.sol\":4393:4501  if (poll.completedCount >= poll.maxCompletions) {... */\n      tag_81\n      jumpi\n        /* \"PollEscrow.sol\":4462:4490  PollExceededMaxCompletions() */\n      mload(0x40)\n      shl(0xe2, 0x094bb1ef)\n      dup2\n      mstore\n      0x04\n      add\n      mload(0x40)\n      dup1\n      swap2\n      sub\n      swap1\n      revert\n        /* \"PollEscrow.sol\":4393:4501  if (poll.completedCount >= poll.maxCompletions) {... */\n    tag_81:\n        /* \"PollEscrow.sol\":4523:4559  poll.nullifierHashes[_nullifierHash] */\n      0x00\n      dup3\n      dup2\n      mstore\n        /* \"PollEscrow.sol\":4523:4543  poll.nullifierHashes */\n      0x06\n      dup3\n      add\n        /* \"PollEscrow.sol\":4523:4559  poll.nullifierHashes[_nullifierHash] */\n      0x20\n      mstore\n      0x40\n      swap1\n      keccak256\n      sload\n      0xff\n      and\n        /* \"PollEscrow.sol\":4519:4619  if (poll.nullifierHashes[_nullifierHash]) {... */\n      iszero\n      tag_82\n      jumpi\n        /* \"PollEscrow.sol\":4582:4608  NullifierHashAlreadyUsed() */\n      mload(0x40)\n      shl(0xe0, 0x12f44255)\n      dup2\n      mstore\n      0x04\n      add\n      mload(0x40)\n      dup1\n      swap2\n      sub\n      swap1\n      revert\n        /* \"PollEscrow.sol\":4519:4619  if (poll.nullifierHashes[_nullifierHash]) {... */\n    tag_82:\n        /* \"PollEscrow.sol\":4676:4712  poll.nullifierHashes[_nullifierHash] */\n      0x00\n      dup3\n      dup2\n      mstore\n        /* \"PollEscrow.sol\":4676:4696  poll.nullifierHashes */\n      0x06\n      dup3\n      add\n        /* \"PollEscrow.sol\":4676:4712  poll.nullifierHashes[_nullifierHash] */\n      0x20\n      mstore\n      0x40\n      dup2\n      keccak256\n        /* \"PollEscrow.sol\":4676:4719  poll.nullifierHashes[_nullifierHash] = true */\n      dup1\n      sload\n      not(0xff)\n      and\n        /* \"PollEscrow.sol\":4715:4719  true */\n      0x01\n        /* \"PollEscrow.sol\":4676:4719  poll.nullifierHashes[_nullifierHash] = true */\n      or\n      swap1\n      sstore\n        /* \"PollEscrow.sol\":4729:4748  poll.completedCount */\n      0x03\n      dup3\n      add\n        /* \"PollEscrow.sol\":4729:4750  poll.completedCount++ */\n      dup1\n      sload\n      swap2\n      tag_83\n      dup4\n      tag_84\n      jump\t// in\n    tag_83:\n      swap1\n      swap2\n      sstore\n      pop\n        /* \"PollEscrow.sol\":4823:4841  uint256 userPayout */\n      0x00\n      swap1\n      pop\n        /* \"PollEscrow.sol\":708:713  10000 */\n      0x2710\n        /* \"PollEscrow.sol\":4867:4901  BPS_DENOMINATOR - PLATFORM_FEE_BPS */\n      tag_85\n        /* \"PollEscrow.sol\":629:633  1000 */\n      0x03e8\n        /* \"PollEscrow.sol\":708:713  10000 */\n      dup3\n        /* \"PollEscrow.sol\":4867:4901  BPS_DENOMINATOR - PLATFORM_FEE_BPS */\n      tag_86\n      jump\t// in\n    tag_85:\n        /* \"PollEscrow.sol\":4845:4849  poll */\n      dup4\n        /* \"PollEscrow.sol\":4845:4863  poll.rewardPerUser */\n      0x02\n      add\n      sload\n        /* \"PollEscrow.sol\":4845:4902  poll.rewardPerUser * (BPS_DENOMINATOR - PLATFORM_FEE_BPS) */\n      tag_87\n      swap2\n      swap1\n      tag_88\n      jump\t// in\n    tag_87:\n        /* \"PollEscrow.sol\":4844:4921  (poll.rewardPerUser * (BPS_DENOMINATOR - PLATFORM_FEE_BPS)) / BPS_DENOMINATOR */\n      tag_89\n      swap2\n      swap1\n      tag_90\n      jump\t// in\n    tag_89:\n        /* \"PollEscrow.sol\":4823:4921  uint256 userPayout = (poll.rewardPerUser * (BPS_DENOMINATOR - PLATFORM_FEE_BPS)) / BPS_DENOMINATOR */\n      swap1\n      pop\n        /* \"PollEscrow.sol\":4931:4950  uint256 platformFee */\n      0x00\n        /* \"PollEscrow.sol\":4974:4984  userPayout */\n      dup2\n        /* \"PollEscrow.sol\":4953:4957  poll */\n      dup4\n        /* \"PollEscrow.sol\":4953:4971  poll.rewardPerUser */\n      0x02\n      add\n      sload\n        /* \"PollEscrow.sol\":4953:4984  poll.rewardPerUser - userPayout */\n      tag_91\n      swap2\n      swap1\n      tag_86\n      jump\t// in\n    tag_91:\n        /* \"PollEscrow.sol\":4931:4984  uint256 platformFee = poll.rewardPerUser - userPayout */\n      swap1\n      pop\n        /* \"PollEscrow.sol\":5035:5081  usdcToken.safeTransfer(msg.sender, userPayout) */\n      tag_92\n      sub(shl(0xa0, 0x01), 0x01)\n        /* \"PollEscrow.sol\":5035:5044  usdcToken */\n      immutable(\"0x1572b593c53d839d80004aa4b8c51211864104f06ace9e22be9c4365b50655ea\")\n        /* \"PollEscrow.sol\":5035:5057  usdcToken.safeTransfer */\n      and\n        /* \"PollEscrow.sol\":5058:5068  msg.sender */\n      caller\n        /* \"PollEscrow.sol\":5070:5080  userPayout */\n      dup5\n        /* \"PollEscrow.sol\":5035:5057  usdcToken.safeTransfer */\n      tag_93\n        /* \"PollEscrow.sol\":5035:5081  usdcToken.safeTransfer(msg.sender, userPayout) */\n      jump\t// in\n    tag_92:\n        /* \"PollEscrow.sol\":5133:5186  usdcToken.safeTransfer(platformTreasury, platformFee) */\n      tag_94\n      sub(shl(0xa0, 0x01), 0x01)\n        /* \"PollEscrow.sol\":5133:5142  usdcToken */\n      immutable(\"0x1572b593c53d839d80004aa4b8c51211864104f06ace9e22be9c4365b50655ea\")\n        /* \"PollEscrow.sol\":5133:5155  usdcToken.safeTransfer */\n      and\n        /* \"PollEscrow.sol\":5156:5172  platformTreasury */\n      immutable(\"0x81e080ffc23e8b8d44dd829bc823229e92b893eb1d8f624419d3f5682eb97fc3\")\n        /* \"PollEscrow.sol\":5174:5185  platformFee */\n      dup4\n        /* \"PollEscrow.sol\":5133:5155  usdcToken.safeTransfer */\n      tag_93\n        /* \"PollEscrow.sol\":5133:5186  usdcToken.safeTransfer(platformTreasury, platformFee) */\n      jump\t// in\n    tag_94:\n        /* \"PollEscrow.sol\":5210:5285  PollCompleted(_pollId, msg.sender, userPayout, platformFee, _nullifierHash) */\n      0x40\n      dup1\n      mload\n        /* \"#utility.yul\":3538:3563   */\n      dup4\n      dup2\n      mstore\n        /* \"#utility.yul\":3594:3596   */\n      0x20\n        /* \"#utility.yul\":3579:3597   */\n      dup2\n      add\n        /* \"#utility.yul\":3572:3606   */\n      dup4\n      swap1\n      mstore\n        /* \"#utility.yul\":3622:3640   */\n      swap1\n      dup2\n      add\n        /* \"#utility.yul\":3615:3649   */\n      dup6\n      swap1\n      mstore\n        /* \"PollEscrow.sol\":5233:5243  msg.sender */\n      caller\n      swap1\n        /* \"PollEscrow.sol\":5224:5231  _pollId */\n      dup7\n      swap1\n        /* \"PollEscrow.sol\":5210:5285  PollCompleted(_pollId, msg.sender, userPayout, platformFee, _nullifierHash) */\n      0xbf2c89ae61d1ae0ce76bb0245e08b2aa7e777cd3cbc1ca0a534d1f5e1fbe68fa\n      swap1\n        /* \"#utility.yul\":3526:3528   */\n      0x60\n        /* \"#utility.yul\":3511:3529   */\n      add\n        /* \"PollEscrow.sol\":5210:5285  PollCompleted(_pollId, msg.sender, userPayout, platformFee, _nullifierHash) */\n      mload(0x40)\n      dup1\n      swap2\n      sub\n      swap1\n      log3\n        /* \"PollEscrow.sol\":5385:5389  poll */\n      dup3\n        /* \"PollEscrow.sol\":5385:5404  poll.maxCompletions */\n      0x04\n      add\n      sload\n        /* \"PollEscrow.sol\":5362:5366  poll */\n      dup4\n        /* \"PollEscrow.sol\":5362:5381  poll.completedCount */\n      0x03\n      add\n      sload\n        /* \"PollEscrow.sol\":5362:5404  poll.completedCount >= poll.maxCompletions */\n      lt\n        /* \"PollEscrow.sol\":5358:5490  if (poll.completedCount >= poll.maxCompletions) {... */\n      tag_97\n      jumpi\n        /* \"PollEscrow.sol\":5420:5433  poll.isActive */\n      0x05\n      dup4\n      add\n        /* \"PollEscrow.sol\":5420:5441  poll.isActive = false */\n      dup1\n      sload\n      not(0xff)\n      and\n      swap1\n      sstore\n        /* \"PollEscrow.sol\":5460:5479  PollClosed(_pollId) */\n      mload(0x40)\n        /* \"PollEscrow.sol\":5471:5478  _pollId */\n      dup6\n      swap1\n        /* \"PollEscrow.sol\":5460:5479  PollClosed(_pollId) */\n      0x703c67c157a1afb7d386ce5212ee88bf0a690bca998060e9595ebdfd747100ce\n      swap1\n        /* \"PollEscrow.sol\":5436:5441  false */\n      0x00\n      swap1\n        /* \"PollEscrow.sol\":5460:5479  PollClosed(_pollId) */\n      log2\n        /* \"PollEscrow.sol\":5358:5490  if (poll.completedCount >= poll.maxCompletions) {... */\n    tag_97:\n        /* \"PollEscrow.sol\":4150:5496  {... */\n      pop\n      pop\n      pop\n        /* \"@openzeppelin/contracts/utils/ReentrancyGuard.sol\":2542:2562   */\n      tag_98\n        /* \"@openzeppelin/contracts/utils/ReentrancyGuard.sol\":1857:1858   */\n      0x01\n        /* \"@openzeppelin/contracts/utils/ReentrancyGuard.sol\":3068:3075   */\n      0x00\n        /* \"@openzeppelin/contracts/utils/ReentrancyGuard.sol\":3068:3089   */\n      sstore\n        /* \"@openzeppelin/contracts/utils/ReentrancyGuard.sol\":2888:3096   */\n      jump\n        /* \"@openzeppelin/contracts/utils/ReentrancyGuard.sol\":2542:2562   */\n    tag_98:\n        /* \"PollEscrow.sol\":4043:5496  function completePoll(... */\n      pop\n      pop\n      jump\t// out\n        /* \"@openzeppelin/contracts/access/Ownable.sol\":2293:2394   */\n    tag_39:\n        /* \"@openzeppelin/contracts/access/Ownable.sol\":1531:1544   */\n      tag_101\n        /* \"@openzeppelin/contracts/access/Ownable.sol\":1531:1542   */\n      tag_102\n        /* \"@openzeppelin/contracts/access/Ownable.sol\":1531:1544   */\n      jump\t// in\n    tag_101:\n        /* \"@openzeppelin/contracts/access/Ownable.sol\":2357:2387   */\n      tag_104\n        /* \"@openzeppelin/contracts/access/Ownable.sol\":2384:2385   */\n      0x00\n        /* \"@openzeppelin/contracts/access/Ownable.sol\":2357:2375   */\n      tag_105\n        /* \"@openzeppelin/contracts/access/Ownable.sol\":2357:2387   */\n      jump\t// in\n    tag_104:\n        /* \"@openzeppelin/contracts/access/Ownable.sol\":2293:2394   */\n      jump\t// out\n        /* \"PollEscrow.sol\":7034:7330  function closePoll(uint256 _pollId) external {... */\n    tag_46:\n        /* \"PollEscrow.sol\":7089:7106  Poll storage poll */\n      0x00\n        /* \"PollEscrow.sol\":7109:7123  polls[_pollId] */\n      dup2\n      dup2\n      mstore\n        /* \"PollEscrow.sol\":7109:7114  polls */\n      0x03\n        /* \"PollEscrow.sol\":7109:7123  polls[_pollId] */\n      0x20\n      mstore\n      0x40\n      swap1\n      keccak256\n        /* \"PollEscrow.sol\":7141:7153  poll.creator */\n      dup1\n      sload\n      sub(shl(0xa0, 0x01), 0x01)\n      and\n        /* \"PollEscrow.sol\":7157:7167  msg.sender */\n      caller\n        /* \"PollEscrow.sol\":7141:7167  poll.creator == msg.sender */\n      eq\n        /* \"PollEscrow.sol\":7133:7194  require(poll.creator == msg.sender, \"Only creator can close\") */\n      tag_108\n      jumpi\n      mload(0x40)\n      shl(0xe5, 0x461bcd)\n      dup2\n      mstore\n        /* \"#utility.yul\":3862:3864   */\n      0x20\n        /* \"PollEscrow.sol\":7133:7194  require(poll.creator == msg.sender, \"Only creator can close\") */\n      0x04\n      dup3\n      add\n        /* \"#utility.yul\":3844:3865   */\n      mstore\n        /* \"#utility.yul\":3901:3903   */\n      0x16\n        /* \"#utility.yul\":3881:3899   */\n      0x24\n      dup3\n      add\n        /* \"#utility.yul\":3874:3904   */\n      mstore\n        /* \"#utility.yul\":3940:3964   */\n      0x4f6e6c792063726561746f722063616e20636c6f736500000000000000000000\n        /* \"#utility.yul\":3920:3938   */\n      0x44\n      dup3\n      add\n        /* \"#utility.yul\":3913:3965   */\n      mstore\n        /* \"#utility.yul\":3982:4000   */\n      0x64\n      add\n        /* \"PollEscrow.sol\":7133:7194  require(poll.creator == msg.sender, \"Only creator can close\") */\n    tag_109:\n      mload(0x40)\n      dup1\n      swap2\n      sub\n      swap1\n      revert\n    tag_108:\n        /* \"PollEscrow.sol\":7212:7225  poll.isActive */\n      0x05\n      dup2\n      add\n      sload\n      0xff\n      and\n        /* \"PollEscrow.sol\":7204:7249  require(poll.isActive, \"Poll already closed\") */\n      tag_111\n      jumpi\n      mload(0x40)\n      shl(0xe5, 0x461bcd)\n      dup2\n      mstore\n        /* \"#utility.yul\":4213:4215   */\n      0x20\n        /* \"PollEscrow.sol\":7204:7249  require(poll.isActive, \"Poll already closed\") */\n      0x04\n      dup3\n      add\n        /* \"#utility.yul\":4195:4216   */\n      mstore\n        /* \"#utility.yul\":4252:4254   */\n      0x13\n        /* \"#utility.yul\":4232:4250   */\n      0x24\n      dup3\n      add\n        /* \"#utility.yul\":4225:4255   */\n      mstore\n        /* \"#utility.yul\":4291:4312   */\n      0x506f6c6c20616c726561647920636c6f73656400000000000000000000000000\n        /* \"#utility.yul\":4271:4289   */\n      0x44\n      dup3\n      add\n        /* \"#utility.yul\":4264:4313   */\n      mstore\n        /* \"#utility.yul\":4330:4348   */\n      0x64\n      add\n        /* \"PollEscrow.sol\":7204:7249  require(poll.isActive, \"Poll already closed\") */\n      tag_109\n        /* \"#utility.yul\":4011:4354   */\n      jump\n        /* \"PollEscrow.sol\":7204:7249  require(poll.isActive, \"Poll already closed\") */\n    tag_111:\n        /* \"PollEscrow.sol\":7268:7281  poll.isActive */\n      0x05\n      dup2\n      add\n        /* \"PollEscrow.sol\":7268:7289  poll.isActive = false */\n      dup1\n      sload\n      not(0xff)\n      and\n      swap1\n      sstore\n        /* \"PollEscrow.sol\":7304:7323  PollClosed(_pollId) */\n      mload(0x40)\n        /* \"PollEscrow.sol\":7315:7322  _pollId */\n      dup3\n      swap1\n        /* \"PollEscrow.sol\":7304:7323  PollClosed(_pollId) */\n      0x703c67c157a1afb7d386ce5212ee88bf0a690bca998060e9595ebdfd747100ce\n      swap1\n        /* \"PollEscrow.sol\":7284:7289  false */\n      0x00\n      swap1\n        /* \"PollEscrow.sol\":7304:7323  PollClosed(_pollId) */\n      log2\n        /* \"PollEscrow.sol\":7079:7330  {... */\n      pop\n        /* \"PollEscrow.sol\":7034:7330  function closePoll(uint256 _pollId) external {... */\n      pop\n      jump\t// out\n        /* \"PollEscrow.sol\":2838:3774  function createPoll(... */\n    tag_54:\n        /* \"PollEscrow.sol\":2989:2996  uint256 */\n      0x00\n        /* \"@openzeppelin/contracts/utils/ReentrancyGuard.sol\":2500:2521   */\n      tag_115\n        /* \"@openzeppelin/contracts/utils/ReentrancyGuard.sol\":2500:2519   */\n      tag_77\n        /* \"@openzeppelin/contracts/utils/ReentrancyGuard.sol\":2500:2521   */\n      jump\t// in\n    tag_115:\n        /* \"PollEscrow.sol\":3030:3031  0 */\n      0x00\n        /* \"PollEscrow.sol\":3016:3027  _rewardPool */\n      dup5\n        /* \"PollEscrow.sol\":3016:3031  _rewardPool > 0 */\n      gt\n        /* \"PollEscrow.sol\":3008:3059  require(_rewardPool > 0, \"Reward pool must be > 0\") */\n      tag_117\n      jumpi\n      mload(0x40)\n      shl(0xe5, 0x461bcd)\n      dup2\n      mstore\n        /* \"#utility.yul\":4561:4563   */\n      0x20\n        /* \"PollEscrow.sol\":3008:3059  require(_rewardPool > 0, \"Reward pool must be > 0\") */\n      0x04\n      dup3\n      add\n        /* \"#utility.yul\":4543:4564   */\n      mstore\n        /* \"#utility.yul\":4600:4602   */\n      0x17\n        /* \"#utility.yul\":4580:4598   */\n      0x24\n      dup3\n      add\n        /* \"#utility.yul\":4573:4603   */\n      mstore\n        /* \"#utility.yul\":4639:4664   */\n      0x52657761726420706f6f6c206d757374206265203e2030000000000000000000\n        /* \"#utility.yul\":4619:4637   */\n      0x44\n      dup3\n      add\n        /* \"#utility.yul\":4612:4665   */\n      mstore\n        /* \"#utility.yul\":4682:4700   */\n      0x64\n      add\n        /* \"PollEscrow.sol\":3008:3059  require(_rewardPool > 0, \"Reward pool must be > 0\") */\n      tag_109\n        /* \"#utility.yul\":4359:4706   */\n      jump\n        /* \"PollEscrow.sol\":3008:3059  require(_rewardPool > 0, \"Reward pool must be > 0\") */\n    tag_117:\n        /* \"PollEscrow.sol\":3094:3095  0 */\n      0x00\n        /* \"PollEscrow.sol\":3077:3091  _rewardPerUser */\n      dup4\n        /* \"PollEscrow.sol\":3077:3095  _rewardPerUser > 0 */\n      gt\n        /* \"PollEscrow.sol\":3069:3127  require(_rewardPerUser > 0, \"Reward per user must be > 0\") */\n      tag_120\n      jumpi\n      mload(0x40)\n      shl(0xe5, 0x461bcd)\n      dup2\n      mstore\n        /* \"#utility.yul\":4913:4915   */\n      0x20\n        /* \"PollEscrow.sol\":3069:3127  require(_rewardPerUser > 0, \"Reward per user must be > 0\") */\n      0x04\n      dup3\n      add\n        /* \"#utility.yul\":4895:4916   */\n      mstore\n        /* \"#utility.yul\":4952:4954   */\n      0x1b\n        /* \"#utility.yul\":4932:4950   */\n      0x24\n      dup3\n      add\n        /* \"#utility.yul\":4925:4955   */\n      mstore\n        /* \"#utility.yul\":4991:5020   */\n      0x526577617264207065722075736572206d757374206265203e20300000000000\n        /* \"#utility.yul\":4971:4989   */\n      0x44\n      dup3\n      add\n        /* \"#utility.yul\":4964:5021   */\n      mstore\n        /* \"#utility.yul\":5038:5056   */\n      0x64\n      add\n        /* \"PollEscrow.sol\":3069:3127  require(_rewardPerUser > 0, \"Reward per user must be > 0\") */\n      tag_109\n        /* \"#utility.yul\":4711:5062   */\n      jump\n        /* \"PollEscrow.sol\":3069:3127  require(_rewardPerUser > 0, \"Reward per user must be > 0\") */\n    tag_120:\n        /* \"PollEscrow.sol\":3163:3164  0 */\n      0x00\n        /* \"PollEscrow.sol\":3145:3160  _maxCompletions */\n      dup3\n        /* \"PollEscrow.sol\":3145:3164  _maxCompletions > 0 */\n      gt\n        /* \"PollEscrow.sol\":3137:3196  require(_maxCompletions > 0, \"Max completions must be > 0\") */\n      tag_123\n      jumpi\n      mload(0x40)\n      shl(0xe5, 0x461bcd)\n      dup2\n      mstore\n        /* \"#utility.yul\":5269:5271   */\n      0x20\n        /* \"PollEscrow.sol\":3137:3196  require(_maxCompletions > 0, \"Max completions must be > 0\") */\n      0x04\n      dup3\n      add\n        /* \"#utility.yul\":5251:5272   */\n      mstore\n        /* \"#utility.yul\":5308:5310   */\n      0x1b\n        /* \"#utility.yul\":5288:5306   */\n      0x24\n      dup3\n      add\n        /* \"#utility.yul\":5281:5311   */\n      mstore\n        /* \"#utility.yul\":5347:5376   */\n      0x4d617820636f6d706c6574696f6e73206d757374206265203e20300000000000\n        /* \"#utility.yul\":5327:5345   */\n      0x44\n      dup3\n      add\n        /* \"#utility.yul\":5320:5377   */\n      mstore\n        /* \"#utility.yul\":5394:5412   */\n      0x64\n      add\n        /* \"PollEscrow.sol\":3137:3196  require(_maxCompletions > 0, \"Max completions must be > 0\") */\n      tag_109\n        /* \"#utility.yul\":5067:5418   */\n      jump\n        /* \"PollEscrow.sol\":3137:3196  require(_maxCompletions > 0, \"Max completions must be > 0\") */\n    tag_123:\n        /* \"PollEscrow.sol\":3215:3229  uint256 pollId */\n      0x00\n        /* \"PollEscrow.sol\":3234:3246  _pollCounter */\n      0x02\n      0x00\n        /* \"PollEscrow.sol\":3232:3246  ++_pollCounter */\n      dup2\n      sload\n      tag_126\n      swap1\n      tag_84\n      jump\t// in\n    tag_126:\n      swap2\n      dup3\n      swap1\n      sstore\n      pop\n      swap1\n      pop\n        /* \"PollEscrow.sol\":3320:3386  usdcToken.safeTransferFrom(msg.sender, address(this), _rewardPool) */\n      tag_127\n      sub(shl(0xa0, 0x01), 0x01)\n        /* \"PollEscrow.sol\":3320:3329  usdcToken */\n      immutable(\"0x1572b593c53d839d80004aa4b8c51211864104f06ace9e22be9c4365b50655ea\")\n        /* \"PollEscrow.sol\":3320:3346  usdcToken.safeTransferFrom */\n      and\n        /* \"PollEscrow.sol\":3347:3357  msg.sender */\n      caller\n        /* \"PollEscrow.sol\":3367:3371  this */\n      address\n        /* \"PollEscrow.sol\":3374:3385  _rewardPool */\n      dup9\n        /* \"PollEscrow.sol\":3320:3346  usdcToken.safeTransferFrom */\n      tag_128\n        /* \"PollEscrow.sol\":3320:3386  usdcToken.safeTransferFrom(msg.sender, address(this), _rewardPool) */\n      jump\t// in\n    tag_127:\n        /* \"PollEscrow.sol\":3405:3422  Poll storage poll */\n      0x00\n        /* \"PollEscrow.sol\":3425:3438  polls[pollId] */\n      dup2\n      dup2\n      mstore\n        /* \"PollEscrow.sol\":3425:3430  polls */\n      0x03\n        /* \"PollEscrow.sol\":3425:3438  polls[pollId] */\n      0x20\n      swap1\n      dup2\n      mstore\n      0x40\n      swap2\n      dup3\n      swap1\n      keccak256\n        /* \"PollEscrow.sol\":3448:3473  poll.creator = msg.sender */\n      dup1\n      sload\n      not(0xffffffffffffffffffffffffffffffffffffffff)\n      and\n        /* \"PollEscrow.sol\":3463:3473  msg.sender */\n      caller\n        /* \"PollEscrow.sol\":3448:3473  poll.creator = msg.sender */\n      swap1\n      dup2\n      or\n      dup3\n      sstore\n      0x01\n        /* \"PollEscrow.sol\":3483:3498  poll.rewardPool */\n      dup1\n      dup4\n      add\n        /* \"PollEscrow.sol\":3483:3512  poll.rewardPool = _rewardPool */\n      dup11\n      swap1\n      sstore\n        /* \"PollEscrow.sol\":3522:3540  poll.rewardPerUser */\n      0x02\n      dup4\n      add\n        /* \"PollEscrow.sol\":3522:3557  poll.rewardPerUser = _rewardPerUser */\n      dup10\n      swap1\n      sstore\n        /* \"PollEscrow.sol\":3567:3586  poll.maxCompletions */\n      0x04\n      dup4\n      add\n        /* \"PollEscrow.sol\":3567:3604  poll.maxCompletions = _maxCompletions */\n      dup9\n      swap1\n      sstore\n        /* \"PollEscrow.sol\":3614:3627  poll.isActive */\n      0x05\n      dup4\n      add\n        /* \"PollEscrow.sol\":3614:3634  poll.isActive = true */\n      dup1\n      sload\n      not(0xff)\n      and\n      swap1\n      swap2\n      or\n      swap1\n      sstore\n        /* \"PollEscrow.sol\":3658:3735  PollCreated(pollId, msg.sender, _rewardPool, _rewardPerUser, _maxCompletions) */\n      dup4\n      mload\n        /* \"#utility.yul\":3538:3563   */\n      dup10\n      dup2\n      mstore\n        /* \"#utility.yul\":3579:3597   */\n      swap3\n      dup4\n      add\n        /* \"#utility.yul\":3572:3606   */\n      dup9\n      swap1\n      mstore\n        /* \"#utility.yul\":3622:3640   */\n      swap3\n      dup3\n      add\n        /* \"#utility.yul\":3615:3649   */\n      dup7\n      swap1\n      mstore\n        /* \"PollEscrow.sol\":3425:3438  polls[pollId] */\n      swap2\n        /* \"PollEscrow.sol\":3463:3473  msg.sender */\n      swap1\n        /* \"PollEscrow.sol\":3425:3438  polls[pollId] */\n      dup4\n      swap1\n        /* \"PollEscrow.sol\":3658:3735  PollCreated(pollId, msg.sender, _rewardPool, _rewardPerUser, _maxCompletions) */\n      0x0acc8af125a04590aa6c8f9f7cd3f8f0980de3afc9a61983648c370539b7c84a\n      swap1\n        /* \"#utility.yul\":3526:3528   */\n      0x60\n        /* \"#utility.yul\":3511:3529   */\n      add\n        /* \"PollEscrow.sol\":3658:3735  PollCreated(pollId, msg.sender, _rewardPool, _rewardPerUser, _maxCompletions) */\n      mload(0x40)\n      dup1\n      swap2\n      sub\n      swap1\n      log3\n      pop\n        /* \"PollEscrow.sol\":3761:3767  pollId */\n      swap1\n      pop\n        /* \"@openzeppelin/contracts/utils/ReentrancyGuard.sol\":2542:2562   */\n      tag_131\n        /* \"@openzeppelin/contracts/utils/ReentrancyGuard.sol\":1857:1858   */\n      0x01\n        /* \"@openzeppelin/contracts/utils/ReentrancyGuard.sol\":3068:3075   */\n      0x00\n        /* \"@openzeppelin/contracts/utils/ReentrancyGuard.sol\":3068:3089   */\n      sstore\n        /* \"@openzeppelin/contracts/utils/ReentrancyGuard.sol\":2888:3096   */\n      jump\n        /* \"@openzeppelin/contracts/utils/ReentrancyGuard.sol\":2542:2562   */\n    tag_131:\n        /* \"PollEscrow.sol\":2838:3774  function createPoll(... */\n      swap4\n      swap3\n      pop\n      pop\n      pop\n      jump\t// out\n        /* \"PollEscrow.sol\":6708:6905  function isNullifierHashUsed(uint256 _pollId, bytes32 _nullifierHash)... */\n    tag_58:\n        /* \"PollEscrow.sol\":6825:6829  bool */\n      0x00\n        /* \"PollEscrow.sol\":6852:6866  polls[_pollId] */\n      dup3\n      dup2\n      mstore\n        /* \"PollEscrow.sol\":6852:6857  polls */\n      0x03\n        /* \"PollEscrow.sol\":6852:6866  polls[_pollId] */\n      0x20\n      swap1\n      dup2\n      mstore\n      0x40\n      dup1\n      dup4\n      keccak256\n        /* \"PollEscrow.sol\":6852:6898  polls[_pollId].nullifierHashes[_nullifierHash] */\n      dup5\n      dup5\n      mstore\n        /* \"PollEscrow.sol\":6852:6882  polls[_pollId].nullifierHashes */\n      0x06\n      add\n        /* \"PollEscrow.sol\":6852:6898  polls[_pollId].nullifierHashes[_nullifierHash] */\n      swap1\n      swap2\n      mstore\n      swap1\n      keccak256\n      sload\n      0xff\n      and\n        /* \"PollEscrow.sol\":6708:6905  function isNullifierHashUsed(uint256 _pollId, bytes32 _nullifierHash)... */\n    tag_132:\n      swap3\n      swap2\n      pop\n      pop\n      jump\t// out\n        /* \"@openzeppelin/contracts/access/Ownable.sol\":2543:2758   */\n    tag_73:\n        /* \"@openzeppelin/contracts/access/Ownable.sol\":1531:1544   */\n      tag_135\n        /* \"@openzeppelin/contracts/access/Ownable.sol\":1531:1542   */\n      tag_102\n        /* \"@openzeppelin/contracts/access/Ownable.sol\":1531:1544   */\n      jump\t// in\n    tag_135:\n      sub(shl(0xa0, 0x01), 0x01)\n        /* \"@openzeppelin/contracts/access/Ownable.sol\":2627:2649   */\n      dup2\n      and\n        /* \"@openzeppelin/contracts/access/Ownable.sol\":2623:2714   */\n      tag_137\n      jumpi\n        /* \"@openzeppelin/contracts/access/Ownable.sol\":2672:2703   */\n      mload(0x40)\n      shl(0xe0, 0x1e4fbdf7)\n      dup2\n      mstore\n        /* \"@openzeppelin/contracts/access/Ownable.sol\":2700:2701   */\n      0x00\n        /* \"@openzeppelin/contracts/access/Ownable.sol\":2672:2703   */\n      0x04\n      dup3\n      add\n        /* \"#utility.yul\":174:248   */\n      mstore\n        /* \"#utility.yul\":147:165   */\n      0x24\n      add\n        /* \"@openzeppelin/contracts/access/Ownable.sol\":2672:2703   */\n      tag_109\n        /* \"#utility.yul\":14:254   */\n      jump\n        /* \"@openzeppelin/contracts/access/Ownable.sol\":2623:2714   */\n    tag_137:\n        /* \"@openzeppelin/contracts/access/Ownable.sol\":2723:2751   */\n      tag_139\n        /* \"@openzeppelin/contracts/access/Ownable.sol\":2742:2750   */\n      dup2\n        /* \"@openzeppelin/contracts/access/Ownable.sol\":2723:2741   */\n      tag_105\n        /* \"@openzeppelin/contracts/access/Ownable.sol\":2723:2751   */\n      jump\t// in\n    tag_139:\n        /* \"@openzeppelin/contracts/access/Ownable.sol\":2543:2758   */\n      pop\n      jump\t// out\n        /* \"@openzeppelin/contracts/utils/ReentrancyGuard.sol\":2575:2882   */\n    tag_77:\n        /* \"@openzeppelin/contracts/utils/ReentrancyGuard.sol\":1899:1900   */\n      0x02\n        /* \"@openzeppelin/contracts/utils/ReentrancyGuard.sol\":2702:2709   */\n      sload(0x00)\n        /* \"@openzeppelin/contracts/utils/ReentrancyGuard.sol\":2702:2720   */\n      sub\n        /* \"@openzeppelin/contracts/utils/ReentrancyGuard.sol\":2698:2784   */\n      tag_141\n      jumpi\n        /* \"@openzeppelin/contracts/utils/ReentrancyGuard.sol\":2743:2773   */\n      mload(0x40)\n      shl(0xe0, 0x3ee5aeb5)\n      dup2\n      mstore\n      0x04\n      add\n      mload(0x40)\n      dup1\n      swap2\n      sub\n      swap1\n      revert\n        /* \"@openzeppelin/contracts/utils/ReentrancyGuard.sol\":2698:2784   */\n    tag_141:\n        /* \"@openzeppelin/contracts/utils/ReentrancyGuard.sol\":1899:1900   */\n      0x02\n        /* \"@openzeppelin/contracts/utils/ReentrancyGuard.sol\":2858:2865   */\n      0x00\n        /* \"@openzeppelin/contracts/utils/ReentrancyGuard.sol\":2858:2875   */\n      sstore\n        /* \"@openzeppelin/contracts/utils/ReentrancyGuard.sol\":2575:2882   */\n      jump\t// out\n        /* \"@openzeppelin/contracts/token/ERC20/utils/SafeERC20.sol\":1219:1379   */\n    tag_93:\n        /* \"@openzeppelin/contracts/token/ERC20/utils/SafeERC20.sol\":1328:1371   */\n      mload(0x40)\n      sub(shl(0xa0, 0x01), 0x01)\n        /* \"#utility.yul\":5939:5994   */\n      dup4\n      dup2\n      and\n        /* \"@openzeppelin/contracts/token/ERC20/utils/SafeERC20.sol\":1328:1371   */\n      0x24\n      dup4\n      add\n        /* \"#utility.yul\":5921:5995   */\n      mstore\n        /* \"#utility.yul\":6011:6029   */\n      0x44\n      dup3\n      add\n        /* \"#utility.yul\":6004:6038   */\n      dup4\n      swap1\n      mstore\n        /* \"@openzeppelin/contracts/token/ERC20/utils/SafeERC20.sol\":1301:1372   */\n      tag_143\n      swap2\n        /* \"@openzeppelin/contracts/token/ERC20/utils/SafeERC20.sol\":1321:1326   */\n      dup6\n      swap2\n        /* \"@openzeppelin/contracts/token/ERC20/utils/SafeERC20.sol\":1343:1357   */\n      dup3\n      and\n      swap1\n      0xa9059cbb\n      swap1\n        /* \"#utility.yul\":5894:5912   */\n      0x64\n      add\n        /* \"@openzeppelin/contracts/token/ERC20/utils/SafeERC20.sol\":1328:1371   */\n    tag_144:\n      mload(0x40)\n      0x20\n      dup2\n      dup4\n      sub\n      sub\n      dup2\n      mstore\n      swap1\n      0x40\n      mstore\n      swap2\n      pop\n      0xe0\n      shl\n      0x20\n      dup3\n      add\n      dup1\n      mload\n      0xffffffffffffffffffffffffffffffffffffffffffffffffffffffff\n      dup4\n      dup2\n      dup4\n      and\n      or\n      dup4\n      mstore\n      pop\n      pop\n      pop\n      pop\n        /* \"@openzeppelin/contracts/token/ERC20/utils/SafeERC20.sol\":1301:1320   */\n      tag_146\n        /* \"@openzeppelin/contracts/token/ERC20/utils/SafeERC20.sol\":1301:1372   */\n      jump\t// in\n    tag_143:\n        /* \"@openzeppelin/contracts/token/ERC20/utils/SafeERC20.sol\":1219:1379   */\n      pop\n      pop\n      pop\n      jump\t// out\n        /* \"@openzeppelin/contracts/access/Ownable.sol\":1796:1958   */\n    tag_102:\n        /* \"@openzeppelin/contracts/access/Ownable.sol\":1710:1716   */\n      and(sub(shl(0xa0, 0x01), 0x01), sload(0x01))\n        /* \"@openzeppelin/contracts/utils/Context.sol\":735:745   */\n      caller\n        /* \"@openzeppelin/contracts/access/Ownable.sol\":1855:1878   */\n      eq\n        /* \"@openzeppelin/contracts/access/Ownable.sol\":1851:1952   */\n      tag_104\n      jumpi\n        /* \"@openzeppelin/contracts/access/Ownable.sol\":1901:1941   */\n      mload(0x40)\n      shl(0xe0, 0x118cdaa7)\n      dup2\n      mstore\n        /* \"@openzeppelin/contracts/utils/Context.sol\":735:745   */\n      caller\n        /* \"@openzeppelin/contracts/access/Ownable.sol\":1901:1941   */\n      0x04\n      dup3\n      add\n        /* \"#utility.yul\":174:248   */\n      mstore\n        /* \"#utility.yul\":147:165   */\n      0x24\n      add\n        /* \"@openzeppelin/contracts/access/Ownable.sol\":1901:1941   */\n      tag_109\n        /* \"#utility.yul\":14:254   */\n      jump\n        /* \"@openzeppelin/contracts/access/Ownable.sol\":2912:3099   */\n    tag_105:\n        /* \"@openzeppelin/contracts/access/Ownable.sol\":3004:3010   */\n      0x01\n      dup1\n      sload\n      sub(shl(0xa0, 0x01), 0x01)\n        /* \"@openzeppelin/contracts/access/Ownable.sol\":3020:3037   */\n      dup4\n      dup2\n      and\n      not(0xffffffffffffffffffffffffffffffffffffffff)\n      dup4\n      and\n      dup2\n      or\n      swap1\n      swap4\n      sstore\n        /* \"@openzeppelin/contracts/access/Ownable.sol\":3052:3092   */\n      mload(0x40)\n        /* \"@openzeppelin/contracts/access/Ownable.sol\":3004:3010   */\n      swap2\n      and\n      swap2\n        /* \"@openzeppelin/contracts/access/Ownable.sol\":3020:3037   */\n      swap1\n        /* \"@openzeppelin/contracts/access/Ownable.sol\":3004:3010   */\n      dup3\n      swap1\n        /* \"@openzeppelin/contracts/access/Ownable.sol\":3052:3092   */\n      0x8be0079c531659141344cd1fd0a4f28419497f9722a3daafe3b4186f6b6457e0\n      swap1\n        /* \"@openzeppelin/contracts/access/Ownable.sol\":2985:3001   */\n      0x00\n      swap1\n        /* \"@openzeppelin/contracts/access/Ownable.sol\":3052:3092   */\n      log3\n        /* \"@openzeppelin/contracts/access/Ownable.sol\":2975:3099   */\n      pop\n        /* \"@openzeppelin/contracts/access/Ownable.sol\":2912:3099   */\n      pop\n      jump\t// out\n        /* \"@openzeppelin/contracts/token/ERC20/utils/SafeERC20.sol\":1618:1806   */\n    tag_128:\n        /* \"@openzeppelin/contracts/token/ERC20/utils/SafeERC20.sol\":1745:1798   */\n      mload(0x40)\n      sub(shl(0xa0, 0x01), 0x01)\n        /* \"#utility.yul\":6330:6345   */\n      dup5\n      dup2\n      and\n        /* \"@openzeppelin/contracts/token/ERC20/utils/SafeERC20.sol\":1745:1798   */\n      0x24\n      dup4\n      add\n        /* \"#utility.yul\":6312:6346   */\n      mstore\n        /* \"#utility.yul\":6382:6397   */\n      dup4\n      dup2\n      and\n        /* \"#utility.yul\":6362:6380   */\n      0x44\n      dup4\n      add\n        /* \"#utility.yul\":6355:6398   */\n      mstore\n        /* \"#utility.yul\":6414:6432   */\n      0x64\n      dup3\n      add\n        /* \"#utility.yul\":6407:6441   */\n      dup4\n      swap1\n      mstore\n        /* \"@openzeppelin/contracts/token/ERC20/utils/SafeERC20.sol\":1718:1799   */\n      tag_157\n      swap2\n        /* \"@openzeppelin/contracts/token/ERC20/utils/SafeERC20.sol\":1738:1743   */\n      dup7\n      swap2\n        /* \"@openzeppelin/contracts/token/ERC20/utils/SafeERC20.sol\":1760:1778   */\n      dup3\n      and\n      swap1\n      0x23b872dd\n      swap1\n        /* \"#utility.yul\":6224:6242   */\n      0x84\n      add\n        /* \"@openzeppelin/contracts/token/ERC20/utils/SafeERC20.sol\":1745:1798   */\n      tag_144\n        /* \"#utility.yul\":6049:6447   */\n      jump\n        /* \"@openzeppelin/contracts/token/ERC20/utils/SafeERC20.sol\":1718:1799   */\n    tag_157:\n        /* \"@openzeppelin/contracts/token/ERC20/utils/SafeERC20.sol\":1618:1806   */\n      pop\n      pop\n      pop\n      pop\n      jump\t// out\n        /* \"@openzeppelin/contracts/token/ERC20/utils/SafeERC20.sol\":8370:9090   */\n    tag_146:\n        /* \"@openzeppelin/contracts/token/ERC20/utils/SafeERC20.sol\":8450:8468   */\n      0x00\n        /* \"@openzeppelin/contracts/token/ERC20/utils/SafeERC20.sol\":8478:8497   */\n      dup1\n        /* \"@openzeppelin/contracts/token/ERC20/utils/SafeERC20.sol\":8616:8620   */\n      0x20\n        /* \"@openzeppelin/contracts/token/ERC20/utils/SafeERC20.sol\":8613:8614   */\n      0x00\n        /* \"@openzeppelin/contracts/token/ERC20/utils/SafeERC20.sol\":8606:8610   */\n      dup5\n        /* \"@openzeppelin/contracts/token/ERC20/utils/SafeERC20.sol\":8600:8611   */\n      mload\n        /* \"@openzeppelin/contracts/token/ERC20/utils/SafeERC20.sol\":8593:8597   */\n      0x20\n        /* \"@openzeppelin/contracts/token/ERC20/utils/SafeERC20.sol\":8587:8591   */\n      dup7\n        /* \"@openzeppelin/contracts/token/ERC20/utils/SafeERC20.sol\":8583:8598   */\n      add\n        /* \"@openzeppelin/contracts/token/ERC20/utils/SafeERC20.sol\":8580:8581   */\n      0x00\n        /* \"@openzeppelin/contracts/token/ERC20/utils/SafeERC20.sol\":8573:8578   */\n      dup9\n        /* \"@openzeppelin/contracts/token/ERC20/utils/SafeERC20.sol\":8566:8571   */\n      gas\n        /* \"@openzeppelin/contracts/token/ERC20/utils/SafeERC20.sol\":8561:8621   */\n      call\n        /* \"@openzeppelin/contracts/token/ERC20/utils/SafeERC20.sol\":8673:8680   */\n      dup1\n        /* \"@openzeppelin/contracts/token/ERC20/utils/SafeERC20.sol\":8663:8839   */\n      tag_161\n      jumpi\n        /* \"@openzeppelin/contracts/token/ERC20/utils/SafeERC20.sol\":8717:8721   */\n      0x40\n        /* \"@openzeppelin/contracts/token/ERC20/utils/SafeERC20.sol\":8711:8722   */\n      mload\n        /* \"@openzeppelin/contracts/token/ERC20/utils/SafeERC20.sol\":8762:8778   */\n      returndatasize\n        /* \"@openzeppelin/contracts/token/ERC20/utils/SafeERC20.sol\":8759:8760   */\n      0x00\n        /* \"@openzeppelin/contracts/token/ERC20/utils/SafeERC20.sol\":8754:8757   */\n      dup3\n        /* \"@openzeppelin/contracts/token/ERC20/utils/SafeERC20.sol\":8739:8779   */\n      returndatacopy\n        /* \"@openzeppelin/contracts/token/ERC20/utils/SafeERC20.sol\":8808:8824   */\n      returndatasize\n        /* \"@openzeppelin/contracts/token/ERC20/utils/SafeERC20.sol\":8803:8806   */\n      dup2\n        /* \"@openzeppelin/contracts/token/ERC20/utils/SafeERC20.sol\":8796:8825   */\n      revert\n        /* \"@openzeppelin/contracts/token/ERC20/utils/SafeERC20.sol\":8663:8839   */\n    tag_161:\n      pop\n      pop\n        /* \"@openzeppelin/contracts/token/ERC20/utils/SafeERC20.sol\":8916:8917   */\n      0x00\n        /* \"@openzeppelin/contracts/token/ERC20/utils/SafeERC20.sol\":8910:8918   */\n      mload\n        /* \"@openzeppelin/contracts/token/ERC20/utils/SafeERC20.sol\":8866:8882   */\n      returndatasize\n      swap2\n      pop\n        /* \"@openzeppelin/contracts/token/ERC20/utils/SafeERC20.sol\":8942:8957   */\n      dup2\n      iszero\n        /* \"@openzeppelin/contracts/token/ERC20/utils/SafeERC20.sol\":8942:9010   */\n      tag_162\n      jumpi\n        /* \"@openzeppelin/contracts/token/ERC20/utils/SafeERC20.sol\":8994:9005   */\n      dup1\n        /* \"@openzeppelin/contracts/token/ERC20/utils/SafeERC20.sol\":9009:9010   */\n      0x01\n        /* \"@openzeppelin/contracts/token/ERC20/utils/SafeERC20.sol\":8994:9010   */\n      eq\n      iszero\n        /* \"@openzeppelin/contracts/token/ERC20/utils/SafeERC20.sol\":8942:9010   */\n      jump(tag_163)\n    tag_162:\n      sub(shl(0xa0, 0x01), 0x01)\n        /* \"@openzeppelin/contracts/token/ERC20/utils/SafeERC20.sol\":8960:8986   */\n      dup5\n      and\n      extcodesize\n        /* \"@openzeppelin/contracts/token/ERC20/utils/SafeERC20.sol\":8960:8991   */\n      iszero\n        /* \"@openzeppelin/contracts/token/ERC20/utils/SafeERC20.sol\":8942:9010   */\n    tag_163:\n        /* \"@openzeppelin/contracts/token/ERC20/utils/SafeERC20.sol\":8938:9084   */\n      iszero\n      tag_157\n      jumpi\n        /* \"@openzeppelin/contracts/token/ERC20/utils/SafeERC20.sol\":9033:9073   */\n      mload(0x40)\n      shl(0xe0, 0x5274afe7)\n      dup2\n      mstore\n      sub(shl(0xa0, 0x01), 0x01)\n        /* \"#utility.yul\":192:247   */\n      dup6\n      and\n        /* \"@openzeppelin/contracts/token/ERC20/utils/SafeERC20.sol\":9033:9073   */\n      0x04\n      dup3\n      add\n        /* \"#utility.yul\":174:248   */\n      mstore\n        /* \"#utility.yul\":147:165   */\n      0x24\n      add\n        /* \"@openzeppelin/contracts/token/ERC20/utils/SafeERC20.sol\":9033:9073   */\n      tag_109\n        /* \"#utility.yul\":14:254   */\n      jump\n        /* \"#utility.yul\":259:439   */\n    tag_26:\n        /* \"#utility.yul\":318:324   */\n      0x00\n        /* \"#utility.yul\":371:373   */\n      0x20\n        /* \"#utility.yul\":359:368   */\n      dup3\n        /* \"#utility.yul\":350:357   */\n      dup5\n        /* \"#utility.yul\":346:369   */\n      sub\n        /* \"#utility.yul\":342:374   */\n      slt\n        /* \"#utility.yul\":339:391   */\n      iszero\n      tag_171\n      jumpi\n        /* \"#utility.yul\":387:388   */\n      0x00\n        /* \"#utility.yul\":384:385   */\n      dup1\n        /* \"#utility.yul\":377:389   */\n      revert\n        /* \"#utility.yul\":339:391   */\n    tag_171:\n      pop\n        /* \"#utility.yul\":410:433   */\n      calldataload\n      swap2\n        /* \"#utility.yul\":259:439   */\n      swap1\n      pop\n      jump\t// out\n        /* \"#utility.yul\":1043:1291   */\n    tag_32:\n        /* \"#utility.yul\":1111:1117   */\n      0x00\n        /* \"#utility.yul\":1119:1125   */\n      dup1\n        /* \"#utility.yul\":1172:1174   */\n      0x40\n        /* \"#utility.yul\":1160:1169   */\n      dup4\n        /* \"#utility.yul\":1151:1158   */\n      dup6\n        /* \"#utility.yul\":1147:1170   */\n      sub\n        /* \"#utility.yul\":1143:1175   */\n      slt\n        /* \"#utility.yul\":1140:1192   */\n      iszero\n      tag_174\n      jumpi\n        /* \"#utility.yul\":1188:1189   */\n      0x00\n        /* \"#utility.yul\":1185:1186   */\n      dup1\n        /* \"#utility.yul\":1178:1190   */\n      revert\n        /* \"#utility.yul\":1140:1192   */\n    tag_174:\n      pop\n      pop\n        /* \"#utility.yul\":1211:1234   */\n      dup1\n      calldataload\n      swap3\n        /* \"#utility.yul\":1281:1283   */\n      0x20\n        /* \"#utility.yul\":1266:1284   */\n      swap1\n      swap2\n      add\n        /* \"#utility.yul\":1253:1285   */\n      calldataload\n      swap2\n      pop\n        /* \"#utility.yul\":1043:1291   */\n      jump\t// out\n        /* \"#utility.yul\":1709:2025   */\n    tag_53:\n        /* \"#utility.yul\":1786:1792   */\n      0x00\n        /* \"#utility.yul\":1794:1800   */\n      dup1\n        /* \"#utility.yul\":1802:1808   */\n      0x00\n        /* \"#utility.yul\":1855:1857   */\n      0x60\n        /* \"#utility.yul\":1843:1852   */\n      dup5\n        /* \"#utility.yul\":1834:1841   */\n      dup7\n        /* \"#utility.yul\":1830:1853   */\n      sub\n        /* \"#utility.yul\":1826:1858   */\n      slt\n        /* \"#utility.yul\":1823:1875   */\n      iszero\n      tag_178\n      jumpi\n        /* \"#utility.yul\":1871:1872   */\n      0x00\n        /* \"#utility.yul\":1868:1869   */\n      dup1\n        /* \"#utility.yul\":1861:1873   */\n      revert\n        /* \"#utility.yul\":1823:1875   */\n    tag_178:\n      pop\n      pop\n        /* \"#utility.yul\":1894:1917   */\n      dup2\n      calldataload\n      swap4\n        /* \"#utility.yul\":1964:1966   */\n      0x20\n        /* \"#utility.yul\":1949:1967   */\n      dup4\n      add\n        /* \"#utility.yul\":1936:1968   */\n      calldataload\n      swap4\n      pop\n        /* \"#utility.yul\":2015:2017   */\n      0x40\n        /* \"#utility.yul\":2000:2018   */\n      swap1\n      swap3\n      add\n        /* \"#utility.yul\":1987:2019   */\n      calldataload\n      swap2\n        /* \"#utility.yul\":1709:2025   */\n      swap1\n      pop\n      jump\t// out\n        /* \"#utility.yul\":2222:2531   */\n    tag_72:\n        /* \"#utility.yul\":2281:2287   */\n      0x00\n        /* \"#utility.yul\":2334:2336   */\n      0x20\n        /* \"#utility.yul\":2322:2331   */\n      dup3\n        /* \"#utility.yul\":2313:2320   */\n      dup5\n        /* \"#utility.yul\":2309:2332   */\n      sub\n        /* \"#utility.yul\":2305:2337   */\n      slt\n        /* \"#utility.yul\":2302:2354   */\n      iszero\n      tag_181\n      jumpi\n        /* \"#utility.yul\":2350:2351   */\n      0x00\n        /* \"#utility.yul\":2347:2348   */\n      dup1\n        /* \"#utility.yul\":2340:2352   */\n      revert\n        /* \"#utility.yul\":2302:2354   */\n    tag_181:\n        /* \"#utility.yul\":2389:2398   */\n      dup2\n        /* \"#utility.yul\":2376:2399   */\n      calldataload\n      sub(shl(0xa0, 0x01), 0x01)\n        /* \"#utility.yul\":2432:2437   */\n      dup2\n        /* \"#utility.yul\":2428:2482   */\n      and\n        /* \"#utility.yul\":2421:2426   */\n      dup2\n        /* \"#utility.yul\":2418:2483   */\n      eq\n        /* \"#utility.yul\":2408:2501   */\n      tag_131\n      jumpi\n        /* \"#utility.yul\":2497:2498   */\n      0x00\n        /* \"#utility.yul\":2494:2495   */\n      dup1\n        /* \"#utility.yul\":2487:2499   */\n      revert\n        /* \"#utility.yul\":2536:2663   */\n    tag_167:\n        /* \"#utility.yul\":2597:2607   */\n      0x4e487b71\n        /* \"#utility.yul\":2592:2595   */\n      0xe0\n        /* \"#utility.yul\":2588:2608   */\n      shl\n        /* \"#utility.yul\":2585:2586   */\n      0x00\n        /* \"#utility.yul\":2578:2609   */\n      mstore\n        /* \"#utility.yul\":2628:2632   */\n      0x11\n        /* \"#utility.yul\":2625:2626   */\n      0x04\n        /* \"#utility.yul\":2618:2633   */\n      mstore\n        /* \"#utility.yul\":2652:2656   */\n      0x24\n        /* \"#utility.yul\":2649:2650   */\n      0x00\n        /* \"#utility.yul\":2642:2657   */\n      revert\n        /* \"#utility.yul\":2668:2803   */\n    tag_84:\n        /* \"#utility.yul\":2707:2710   */\n      0x00\n        /* \"#utility.yul\":2728:2745   */\n      0x01\n      dup3\n      add\n        /* \"#utility.yul\":2725:2768   */\n      tag_186\n      jumpi\n        /* \"#utility.yul\":2748:2766   */\n      tag_186\n      tag_167\n      jump\t// in\n    tag_186:\n      pop\n        /* \"#utility.yul\":2795:2796   */\n      0x01\n        /* \"#utility.yul\":2784:2797   */\n      add\n      swap1\n        /* \"#utility.yul\":2668:2803   */\n      jump\t// out\n        /* \"#utility.yul\":2808:2936   */\n    tag_86:\n        /* \"#utility.yul\":2875:2884   */\n      dup2\n      dup2\n      sub\n        /* \"#utility.yul\":2896:2907   */\n      dup2\n      dup2\n      gt\n        /* \"#utility.yul\":2893:2930   */\n      iszero\n      tag_132\n      jumpi\n        /* \"#utility.yul\":2910:2928   */\n      tag_132\n      tag_167\n      jump\t// in\n        /* \"#utility.yul\":2941:3109   */\n    tag_88:\n        /* \"#utility.yul\":3014:3023   */\n      dup1\n      dup3\n      mul\n        /* \"#utility.yul\":3045:3054   */\n      dup2\n      iszero\n        /* \"#utility.yul\":3062:3077   */\n      dup3\n      dup3\n      div\n        /* \"#utility.yul\":3056:3078   */\n      dup5\n      eq\n        /* \"#utility.yul\":3042:3079   */\n      or\n        /* \"#utility.yul\":3032:3103   */\n      tag_132\n      jumpi\n        /* \"#utility.yul\":3083:3101   */\n      tag_132\n      tag_167\n      jump\t// in\n        /* \"#utility.yul\":3114:3331   */\n    tag_90:\n        /* \"#utility.yul\":3154:3155   */\n      0x00\n        /* \"#utility.yul\":3180:3181   */\n      dup3\n        /* \"#utility.yul\":3170:3302   */\n      tag_194\n      jumpi\n        /* \"#utility.yul\":3224:3234   */\n      0x4e487b71\n        /* \"#utility.yul\":3219:3222   */\n      0xe0\n        /* \"#utility.yul\":3215:3235   */\n      shl\n        /* \"#utility.yul\":3212:3213   */\n      0x00\n        /* \"#utility.yul\":3205:3236   */\n      mstore\n        /* \"#utility.yul\":3259:3263   */\n      0x12\n        /* \"#utility.yul\":3256:3257   */\n      0x04\n        /* \"#utility.yul\":3249:3264   */\n      mstore\n        /* \"#utility.yul\":3287:3291   */\n      0x24\n        /* \"#utility.yul\":3284:3285   */\n      0x00\n        /* \"#utility.yul\":3277:3292   */\n      revert\n        /* \"#utility.yul\":3170:3302   */\n    tag_194:\n      pop\n        /* \"#utility.yul\":3316:3325   */\n      div\n      swap1\n        /* \"#utility.yul\":3114:3331   */\n      jump\t// out\n\n    auxdata: 0xa26469706673582212209ec3640b7b7fc2d8bb74e9f07dc6047eae832e71a3ae8e12f0ab6c0fcfc4138a64736f6c63430008190033\n}\n",
    "bytecode": {
      "linkReferences": {},
      "object": "60c060405234801561000f575f80fd5b50604051610d91380380610d9183398101604081905261002e91610191565b60015f55338061005857604051631e4fbdf760e01b81525f60048201526024015b60405180910390fd5b61006181610125565b506001600160a01b0382166100b85760405162461bcd60e51b815260206004820152601460248201527f496e76616c696420555344432061646472657373000000000000000000000000604482015260640161004f565b6001600160a01b03811661010e5760405162461bcd60e51b815260206004820152601860248201527f496e76616c696420747265617375727920616464726573730000000000000000604482015260640161004f565b6001600160a01b039182166080521660a0526101c2565b600180546001600160a01b038381166001600160a01b0319831681179093556040519116919082907f8be0079c531659141344cd1fd0a4f28419497f9722a3daafe3b4186f6b6457e0905f90a35050565b80516001600160a01b038116811461018c575f80fd5b919050565b5f80604083850312156101a2575f80fd5b6101ab83610176565b91506101b960208401610176565b90509250929050565b60805160a051610b936101fe5f395f818161029f015261047101525f818160ee0152818161041b0152818161044f01526107560152610b935ff3fe608060405234801561000f575f80fd5b50600436106100e5575f3560e01c8063ac2f007411610088578063e138818c11610063578063e138818c1461029a578063e1a45218146102c1578063ecde1e00146102ca578063f2fde38b146102d2575f80fd5b8063ac2f007414610212578063de78433f14610264578063df4db86814610277575f80fd5b8063539aa77f116100c3578063539aa77f146101cf578063715018a6146101e65780638da5cb5b146101ee5780639534e637146101ff575f80fd5b806311eac855146100e957806329b8f44a1461012d57806351de23c5146101ba575b5f80fd5b6101107f000000000000000000000000000000000000000000000000000000000000000081565b6040516001600160a01b0390911681526020015b60405180910390f35b61018161013b366004610a62565b5f9081526003602081905260409091208054600182015460028301549383015460048401546005909401546001600160a01b03909316959194939092909160ff90911690565b604080516001600160a01b03909716875260208701959095529385019290925260608401526080830152151560a082015260c001610124565b6101cd6101c8366004610a79565b6102e5565b005b6101d86103e881565b604051908152602001610124565b6101cd610531565b6001546001600160a01b0316610110565b6101cd61020d366004610a62565b610544565b610181610220366004610a62565b600360208190525f91825260409091208054600182015460028301549383015460048401546005909401546001600160a01b03909316949193919290919060ff1686565b6101d8610272366004610a99565b61063d565b61028a610285366004610a79565b610828565b6040519015158152602001610124565b6101107f000000000000000000000000000000000000000000000000000000000000000081565b6101d861271081565b6002546101d8565b6101cd6102e0366004610ac2565b61084e565b6102ed61088b565b5f82815260036020526040902080546001600160a01b0316610322576040516327325ab760e01b815260040160405180910390fd5b600581015460ff16610347576040516327fd0eed60e11b815260040160405180910390fd5b806004015481600301541061036f5760405163094bb1ef60e21b815260040160405180910390fd5b5f82815260068201602052604090205460ff16156103a0576040516312f4425560e01b815260040160405180910390fd5b5f8281526006820160205260408120805460ff19166001179055600382018054916103ca83610afc565b909155505f90506127106103e06103e882610b14565b83600201546103ef9190610b27565b6103f99190610b3e565b90505f81836002015461040c9190610b14565b90506104426001600160a01b037f00000000000000000000000000000000000000000000000000000000000000001633846108b3565b6104966001600160a01b037f0000000000000000000000000000000000000000000000000000000000000000167f0000000000000000000000000000000000000000000000000000000000000000836108b3565b6040805183815260208101839052908101859052339086907fbf2c89ae61d1ae0ce76bb0245e08b2aa7e777cd3cbc1ca0a534d1f5e1fbe68fa9060600160405180910390a382600401548360030154106105215760058301805460ff1916905560405185907f703c67c157a1afb7d386ce5212ee88bf0a690bca998060e9595ebdfd747100ce905f90a25b50505061052d60015f55565b5050565b61053961092c565b6105425f610959565b565b5f81815260036020526040902080546001600160a01b031633146105af5760405162461bcd60e51b815260206004820152601660248201527f4f6e6c792063726561746f722063616e20636c6f73650000000000000000000060448201526064015b60405180910390fd5b600581015460ff166106035760405162461bcd60e51b815260206004820152601360248201527f506f6c6c20616c726561647920636c6f7365640000000000000000000000000060448201526064016105a6565b60058101805460ff1916905560405182907f703c67c157a1afb7d386ce5212ee88bf0a690bca998060e9595ebdfd747100ce905f90a25050565b5f61064661088b565b5f84116106955760405162461bcd60e51b815260206004820152601760248201527f52657761726420706f6f6c206d757374206265203e203000000000000000000060448201526064016105a6565b5f83116106e45760405162461bcd60e51b815260206004820152601b60248201527f526577617264207065722075736572206d757374206265203e2030000000000060448201526064016105a6565b5f82116107335760405162461bcd60e51b815260206004820152601b60248201527f4d617820636f6d706c6574696f6e73206d757374206265203e2030000000000060448201526064016105a6565b5f60025f815461074290610afc565b9182905550905061077e6001600160a01b037f0000000000000000000000000000000000000000000000000000000000000000163330886109b7565b5f81815260036020908152604091829020805473ffffffffffffffffffffffffffffffffffffffff191633908117825560018083018a9055600283018990556004830188905560058301805460ff191690911790558351898152928301889052928201869052919083907f0acc8af125a04590aa6c8f9f7cd3f8f0980de3afc9a61983648c370539b7c84a9060600160405180910390a350905061082160015f55565b9392505050565b5f82815260036020908152604080832084845260060190915290205460ff165b92915050565b61085661092c565b6001600160a01b03811661087f57604051631e4fbdf760e01b81525f60048201526024016105a6565b61088881610959565b50565b60025f54036108ad57604051633ee5aeb560e01b815260040160405180910390fd5b60025f55565b6040516001600160a01b0383811660248301526044820183905261092791859182169063a9059cbb906064015b604051602081830303815290604052915060e01b6020820180517bffffffffffffffffffffffffffffffffffffffffffffffffffffffff83818316178352505050506109f6565b505050565b6001546001600160a01b031633146105425760405163118cdaa760e01b81523360048201526024016105a6565b600180546001600160a01b0383811673ffffffffffffffffffffffffffffffffffffffff19831681179093556040519116919082907f8be0079c531659141344cd1fd0a4f28419497f9722a3daafe3b4186f6b6457e0905f90a35050565b6040516001600160a01b0384811660248301528381166044830152606482018390526109f09186918216906323b872dd906084016108e0565b50505050565b5f8060205f8451602086015f885af180610a15576040513d5f823e3d81fd5b50505f513d91508115610a2c578060011415610a39565b6001600160a01b0384163b155b156109f057604051635274afe760e01b81526001600160a01b03851660048201526024016105a6565b5f60208284031215610a72575f80fd5b5035919050565b5f8060408385031215610a8a575f80fd5b50508035926020909101359150565b5f805f60608486031215610aab575f80fd5b505081359360208301359350604090920135919050565b5f60208284031215610ad2575f80fd5b81356001600160a01b0381168114610821575f80fd5b634e487b7160e01b5f52601160045260245ffd5b5f60018201610b0d57610b0d610ae8565b5060010190565b8181038181111561084857610848610ae8565b808202811582820484141761084857610848610ae8565b5f82610b5857634e487b7160e01b5f52601260045260245ffd5b50049056fea26469706673582212209ec3640b7b7fc2d8bb74e9f07dc6047eae832e71a3ae8e12f0ab6c0fcfc4138a64736f6c63430008190033",
      "opcodes": "PUSH1 0xC0 PUSH1 0x40 MSTORE CALLVALUE DUP1 ISZERO PUSH2 0xF JUMPI PUSH0 DUP1 REVERT JUMPDEST POP PUSH1 0x40 MLOAD PUSH2 0xD91 CODESIZE SUB DUP1 PUSH2 0xD91 DUP4 CODECOPY DUP2 ADD PUSH1 0x40 DUP2 SWAP1 MSTORE PUSH2 0x2E SWAP2 PUSH2 0x191 JUMP JUMPDEST PUSH1 0x1 PUSH0 SSTORE CALLER DUP1 PUSH2 0x58 JUMPI PUSH1 0x40 MLOAD PUSH4 0x1E4FBDF7 PUSH1 0xE0 SHL DUP2 MSTORE PUSH0 PUSH1 0x4 DUP3 ADD MSTORE PUSH1 0x24 ADD JUMPDEST PUSH1 0x40 MLOAD DUP1 SWAP2 SUB SWAP1 REVERT JUMPDEST PUSH2 0x61 DUP2 PUSH2 0x125 JUMP JUMPDEST POP PUSH1 0x1 PUSH1 0x1 PUSH1 0xA0 SHL SUB DUP3 AND PUSH2 0xB8 JUMPI PUSH1 0x40 MLOAD PUSH3 0x461BCD PUSH1 0xE5 SHL DUP2 MSTORE PUSH1 0x20 PUSH1 0x4 DUP3 ADD MSTORE PUSH1 0x14 PUSH1 0x24 DUP3 ADD MSTORE PUSH32 0x496E76616C696420555344432061646472657373000000000000000000000000 PUSH1 0x44 DUP3 ADD MSTORE PUSH1 0x64 ADD PUSH2 0x4F JUMP JUMPDEST PUSH1 0x1 PUSH1 0x1 PUSH1 0xA0 SHL SUB DUP2 AND PUSH2 0x10E JUMPI PUSH1 0x40 MLOAD PUSH3 0x461BCD PUSH1 0xE5 SHL DUP2 MSTORE PUSH1 0x20 PUSH1 0x4 DUP3 ADD MSTORE PUSH1 0x18 PUSH1 0x24 DUP3 ADD MSTORE PUSH32 0x496E76616C696420747265617375727920616464726573730000000000000000 PUSH1 0x44 DUP3 ADD MSTORE PUSH1 0x64 ADD PUSH2 0x4F JUMP JUMPDEST PUSH1 0x1 PUSH1 0x1 PUSH1 0xA0 SHL SUB SWAP2 DUP3 AND PUSH1 0x80 MSTORE AND PUSH1 0xA0 MSTORE PUSH2 0x1C2 JUMP JUMPDEST PUSH1 0x1 DUP1 SLOAD PUSH1 0x1 PUSH1 0x1 PUSH1 0xA0 SHL SUB DUP4 DUP2 AND PUSH1 0x1 PUSH1 0x1 PUSH1 0xA0 SHL SUB NOT DUP4 AND DUP2 OR SWAP1 SWAP4 SSTORE PUSH1 0x40 MLOAD SWAP2 AND SWAP2 SWAP1 DUP3 SWAP1 PUSH32 0x8BE0079C531659141344CD1FD0A4F28419497F9722A3DAAFE3B4186F6B6457E0 SWAP1 PUSH0 SWAP1 LOG3 POP POP JUMP JUMPDEST DUP1 MLOAD PUSH1 0x1 PUSH1 0x1 PUSH1 0xA0 SHL SUB DUP2 AND DUP2 EQ PUSH2 0x18C JUMPI PUSH0 DUP1 REVERT JUMPDEST SWAP2 SWAP1 POP JUMP JUMPDEST PUSH0 DUP1 PUSH1 0x40 DUP4 DUP6 SUB SLT ISZERO PUSH2 0x1A2 JUMPI PUSH0 DUP1 REVERT JUMPDEST PUSH2 0x1AB DUP4 PUSH2 0x176 JUMP JUMPDEST SWAP2 POP PUSH2 0x1B9 PUSH1 0x20 DUP5 ADD PUSH2 0x176 JUMP JUMPDEST SWAP1 POP SWAP3 POP SWAP3 SWAP1 POP JUMP JUMPDEST PUSH1 0x80 MLOAD PUSH1 0xA0 MLOAD PUSH2 0xB93 PUSH2 0x1FE PUSH0 CODECOPY PUSH0 DUP2 DUP2 PUSH2 0x29F ADD MSTORE PUSH2 0x471 ADD MSTORE PUSH0 DUP2 DUP2 PUSH1 0xEE ADD MSTORE DUP2 DUP2 PUSH2 0x41B ADD MSTORE DUP2 DUP2 PUSH2 0x44F ADD MSTORE PUSH2 0x756 ADD MSTORE PUSH2 0xB93 PUSH0 RETURN INVALID PUSH1 0x80 PUSH1 0x40 MSTORE CALLVALUE DUP1 ISZERO PUSH2 0xF JUMPI PUSH0 DUP1 REVERT JUMPDEST POP PUSH1 0x4 CALLDATASIZE LT PUSH2 0xE5 JUMPI PUSH0 CALLDATALOAD PUSH1 0xE0 SHR DUP1 PUSH4 0xAC2F0074 GT PUSH2 0x88 JUMPI DUP1 PUSH4 0xE138818C GT PUSH2 0x63 JUMPI DUP1 PUSH4 0xE138818C EQ PUSH2 0x29A JUMPI DUP1 PUSH4 0xE1A45218 EQ PUSH2 0x2C1 JUMPI DUP1 PUSH4 0xECDE1E00 EQ PUSH2 0x2CA JUMPI DUP1 PUSH4 0xF2FDE38B EQ PUSH2 0x2D2 JUMPI PUSH0 DUP1 REVERT JUMPDEST DUP1 PUSH4 0xAC2F0074 EQ PUSH2 0x212 JUMPI DUP1 PUSH4 0xDE78433F EQ PUSH2 0x264 JUMPI DUP1 PUSH4 0xDF4DB868 EQ PUSH2 0x277 JUMPI PUSH0 DUP1 REVERT JUMPDEST DUP1 PUSH4 0x539AA77F GT PUSH2 0xC3 JUMPI DUP1 PUSH4 0x539AA77F EQ PUSH2 0x1CF JUMPI DUP1 PUSH4 0x715018A6 EQ PUSH2 0x1E6 JUMPI DUP1 PUSH4 0x8DA5CB5B EQ PUSH2 0x1EE JUMPI DUP1 PUSH4 0x9534E637 EQ PUSH2 0x1FF JUMPI PUSH0 DUP1 REVERT JUMPDEST DUP1 PUSH4 0x11EAC855 EQ PUSH2 0xE9 JUMPI DUP1 PUSH4 0x29B8F44A EQ PUSH2 0x12D JUMPI DUP1 PUSH4 0x51DE23C5 EQ PUSH2 0x1BA JUMPI JUMPDEST PUSH0 DUP1 REVERT JUMPDEST PUSH2 0x110 PUSH32 0x0 DUP2 JUMP JUMPDEST PUSH1 0x40 MLOAD PUSH1 0x1 PUSH1 0x1 PUSH1 0xA0 SHL SUB SWAP1 SWAP2 AND DUP2 MSTORE PUSH1 0x20 ADD JUMPDEST PUSH1 0x40 MLOAD DUP1 SWAP2 SUB SWAP1 RETURN JUMPDEST PUSH2 0x181 PUSH2 0x13B CALLDATASIZE PUSH1 0x4 PUSH2 0xA62 JUMP JUMPDEST PUSH0 SWAP1 DUP2 MSTORE PUSH1 0x3 PUSH1 0x20 DUP2 SWAP1 MSTORE PUSH1 0x40 SWAP1 SWAP2 KECCAK256 DUP1 SLOAD PUSH1 0x1 DUP3 ADD SLOAD PUSH1 0x2 DUP4 ADD SLOAD SWAP4 DUP4 ADD SLOAD PUSH1 0x4 DUP5 ADD SLOAD PUSH1 0x5 SWAP1 SWAP5 ADD SLOAD PUSH1 0x1 PUSH1 0x1 PUSH1 0xA0 SHL SUB SWAP1 SWAP4 AND SWAP6 SWAP2 SWAP5 SWAP4 SWAP1 SWAP3 SWAP1 SWAP2 PUSH1 0xFF SWAP1 SWAP2 AND SWAP1 JUMP JUMPDEST PUSH1 0x40 DUP1 MLOAD PUSH1 0x1 PUSH1 0x1 PUSH1 0xA0 SHL SUB SWAP1 SWAP8 AND DUP8 MSTORE PUSH1 0x20 DUP8 ADD SWAP6 SWAP1 SWAP6 MSTORE SWAP4 DUP6 ADD SWAP3 SWAP1 SWAP3 MSTORE PUSH1 0x60 DUP5 ADD MSTORE PUSH1 0x80 DUP4 ADD MSTORE ISZERO ISZERO PUSH1 0xA0 DUP3 ADD MSTORE PUSH1 0xC0 ADD PUSH2 0x124 JUMP JUMPDEST PUSH2 0x1CD PUSH2 0x1C8 CALLDATASIZE PUSH1 0x4 PUSH2 0xA79 JUMP JUMPDEST PUSH2 0x2E5 JUMP JUMPDEST STOP JUMPDEST PUSH2 0x1D8 PUSH2 0x3E8 DUP2 JUMP JUMPDEST PUSH1 0x40 MLOAD SWAP1 DUP2 MSTORE PUSH1 0x20 ADD PUSH2 0x124 JUMP JUMPDEST PUSH2 0x1CD PUSH2 0x531 JUMP JUMPDEST PUSH1 0x1 SLOAD PUSH1 0x1 PUSH1 0x1 PUSH1 0xA0 SHL SUB AND PUSH2 0x110 JUMP JUMPDEST PUSH2 0x1CD PUSH2 0x20D CALLDATASIZE PUSH1 0x4 PUSH2 0xA62 JUMP JUMPDEST PUSH2 0x544 JUMP JUMPDEST PUSH2 0x181 PUSH2 0x220 CALLDATASIZE PUSH1 0x4 PUSH2 0xA62 JUMP JUMPDEST PUSH1 0x3 PUSH1 0x20 DUP2 SWAP1 MSTORE PUSH0 SWAP2 DUP3 MSTORE PUSH1 0x40 SWAP1 SWAP2 KECCAK256 DUP1 SLOAD PUSH1 0x1 DUP3 ADD SLOAD PUSH1 0x2 DUP4 ADD SLOAD SWAP4 DUP4 ADD SLOAD PUSH1 0x4 DUP5 ADD SLOAD PUSH1 0x5 SWAP1 SWAP5 ADD SLOAD PUSH1 0x1 PUSH1 0x1 PUSH1 0xA0 SHL SUB SWAP1 SWAP4 AND SWAP5 SWAP2 SWAP4 SWAP2 SWAP3 SWAP1 SWAP2 SWAP1 PUSH1 0xFF AND DUP7 JUMP JUMPDEST PUSH2 0x1D8 PUSH2 0x272 CALLDATASIZE PUSH1 0x4 PUSH2 0xA99 JUMP JUMPDEST PUSH2 0x63D JUMP JUMPDEST PUSH2 0x28A PUSH2 0x285 CALLDATASIZE PUSH1 0x4 PUSH2 0xA79 JUMP JUMPDEST PUSH2 0x828 JUMP JUMPDEST PUSH1 0x40 MLOAD SWAP1 ISZERO ISZERO DUP2 MSTORE PUSH1 0x20 ADD PUSH2 0x124 JUMP JUMPDEST PUSH2 0x110 PUSH32 0x0 DUP2 JUMP JUMPDEST PUSH2 0x1D8 PUSH2 0x2710 DUP2 JUMP JUMPDEST PUSH1 0x2 SLOAD PUSH2 0x1D8 JUMP JUMPDEST PUSH2 0x1CD PUSH2 0x2E0 CALLDATASIZE PUSH1 0x4 PUSH2 0xAC2 JUMP JUMPDEST PUSH2 0x84E JUMP JUMPDEST PUSH2 0x2ED PUSH2 0x88B JUMP JUMPDEST PUSH0 DUP3 DUP2 MSTORE PUSH1 0x3 PUSH1 0x20 MSTORE PUSH1 0x40 SWAP1 KECCAK256 DUP1 SLOAD PUSH1 0x1 PUSH1 0x1 PUSH1 0xA0 SHL SUB AND PUSH2 0x322 JUMPI PUSH1 0x40 MLOAD PUSH4 0x27325AB7 PUSH1 0xE0 SHL DUP2 MSTORE PUSH1 0x4 ADD PUSH1 0x40 MLOAD DUP1 SWAP2 SUB SWAP1 REVERT JUMPDEST PUSH1 0x5 DUP2 ADD SLOAD PUSH1 0xFF AND PUSH2 0x347 JUMPI PUSH1 0x40 MLOAD PUSH4 0x27FD0EED PUSH1 0xE1 SHL DUP2 MSTORE PUSH1 0x4 ADD PUSH1 0x40 MLOAD DUP1 SWAP2 SUB SWAP1 REVERT JUMPDEST DUP1 PUSH1 0x4 ADD SLOAD DUP2 PUSH1 0x3 ADD SLOAD LT PUSH2 0x36F JUMPI PUSH1 0x40 MLOAD PUSH4 0x94BB1EF PUSH1 0xE2 SHL DUP2 MSTORE PUSH1 0x4 ADD PUSH1 0x40 MLOAD DUP1 SWAP2 SUB SWAP1 REVERT JUMPDEST PUSH0 DUP3 DUP2 MSTORE PUSH1 0x6 DUP3 ADD PUSH1 0x20 MSTORE PUSH1 0x40 SWAP1 KECCAK256 SLOAD PUSH1 0xFF AND ISZERO PUSH2 0x3A0 JUMPI PUSH1 0x40 MLOAD PUSH4 0x12F44255 PUSH1 0xE0 SHL DUP2 MSTORE PUSH1 0x4 ADD PUSH1 0x40 MLOAD DUP1 SWAP2 SUB SWAP1 REVERT JUMPDEST PUSH0 DUP3 DUP2 MSTORE PUSH1 0x6 DUP3 ADD PUSH1 0x20 MSTORE PUSH1 0x40 DUP2 KECCAK256 DUP1 SLOAD PUSH1 0xFF NOT AND PUSH1 0x1 OR SWAP1 SSTORE PUSH1 0x3 DUP3 ADD DUP1 SLOAD SWAP2 PUSH2 0x3CA DUP4 PUSH2 0xAFC JUMP JUMPDEST SWAP1 SWAP2 SSTORE POP PUSH0 SWAP1 POP PUSH2 0x2710 PUSH2 0x3E0 PUSH2 0x3E8 DUP3 PUSH2 0xB14 JUMP JUMPDEST DUP4 PUSH1 0x2 ADD SLOAD PUSH2 0x3EF SWAP2 SWAP1 PUSH2 0xB27 JUMP JUMPDEST PUSH2 0x3F9 SWAP2 SWAP1 PUSH2 0xB3E JUMP JUMPDEST SWAP1 POP PUSH0 DUP2 DUP4 PUSH1 0x2 ADD SLOAD PUSH2 0x40C SWAP2 SWAP1 PUSH2 0xB14 JUMP JUMPDEST SWAP1 POP PUSH2 0x442 PUSH1 0x1 PUSH1 0x1 PUSH1 0xA0 SHL SUB PUSH32 0x0 AND CALLER DUP5 PUSH2 0x8B3 JUMP JUMPDEST PUSH2 0x496 PUSH1 0x1 PUSH1 0x1 PUSH1 0xA0 SHL SUB PUSH32 0x0 AND PUSH32 0x0 DUP4 PUSH2 0x8B3 JUMP JUMPDEST PUSH1 0x40 DUP1 MLOAD DUP4 DUP2 MSTORE PUSH1 0x20 DUP2 ADD DUP4 SWAP1 MSTORE SWAP1 DUP2 ADD DUP6 SWAP1 MSTORE CALLER SWAP1 DUP7 SWAP1 PUSH32 0xBF2C89AE61D1AE0CE76BB0245E08B2AA7E777CD3CBC1CA0A534D1F5E1FBE68FA SWAP1 PUSH1 0x60 ADD PUSH1 0x40 MLOAD DUP1 SWAP2 SUB SWAP1 LOG3 DUP3 PUSH1 0x4 ADD SLOAD DUP4 PUSH1 0x3 ADD SLOAD LT PUSH2 0x521 JUMPI PUSH1 0x5 DUP4 ADD DUP1 SLOAD PUSH1 0xFF NOT AND SWAP1 SSTORE PUSH1 0x40 MLOAD DUP6 SWAP1 PUSH32 0x703C67C157A1AFB7D386CE5212EE88BF0A690BCA998060E9595EBDFD747100CE SWAP1 PUSH0 SWAP1 LOG2 JUMPDEST POP POP POP PUSH2 0x52D PUSH1 0x1 PUSH0 SSTORE JUMP JUMPDEST POP POP JUMP JUMPDEST PUSH2 0x539 PUSH2 0x92C JUMP JUMPDEST PUSH2 0x542 PUSH0 PUSH2 0x959 JUMP JUMPDEST JUMP JUMPDEST PUSH0 DUP2 DUP2 MSTORE PUSH1 0x3 PUSH1 0x20 MSTORE PUSH1 0x40 SWAP1 KECCAK256 DUP1 SLOAD PUSH1 0x1 PUSH1 0x1 PUSH1 0xA0 SHL SUB AND CALLER EQ PUSH2 0x5AF JUMPI PUSH1 0x40 MLOAD PUSH3 0x461BCD PUSH1 0xE5 SHL DUP2 MSTORE PUSH1 0x20 PUSH1 0x4 DUP3 ADD MSTORE PUSH1 0x16 PUSH1 0x24 DUP3 ADD MSTORE PUSH32 0x4F6E6C792063726561746F722063616E20636C6F736500000000000000000000 PUSH1 0x44 DUP3 ADD MSTORE PUSH1 0x64 ADD JUMPDEST PUSH1 0x40 MLOAD DUP1 SWAP2 SUB SWAP1 REVERT JUMPDEST PUSH1 0x5 DUP2 ADD SLOAD PUSH1 0xFF AND PUSH2 0x603 JUMPI PUSH1 0x40 MLOAD PUSH3 0x461BCD PUSH1 0xE5 SHL DUP2 MSTORE PUSH1 0x20 PUSH1 0x4 DUP3 ADD MSTORE PUSH1 0x13 PUSH1 0x24 DUP3 ADD MSTORE PUSH32 0x506F6C6C20616C726561647920636C6F73656400000000000000000000000000 PUSH1 0x44 DUP3 ADD MSTORE PUSH1 0x64 ADD PUSH2 0x5A6 JUMP JUMPDEST PUSH1 0x5 DUP2 ADD DUP1 SLOAD PUSH1 0xFF NOT AND SWAP1 SSTORE PUSH1 0x40 MLOAD DUP3 SWAP1 PUSH32 0x703C67C157A1AFB7D386CE5212EE88BF0A690BCA998060E9595EBDFD747100CE SWAP1 PUSH0 SWAP1 LOG2 POP POP JUMP JUMPDEST PUSH0 PUSH2 0x646 PUSH2 0x88B JUMP JUMPDEST PUSH0 DUP5 GT PUSH2 0x695 JUMPI PUSH1 0x40 MLOAD PUSH3 0x461BCD PUSH1 0xE5 SHL DUP2 MSTORE PUSH1 0x20 PUSH1 0x4 DUP3 ADD MSTORE PUSH1 0x17 PUSH1 0x24 DUP3 ADD MSTORE PUSH32 0x52657761726420706F6F6C206D757374206265203E2030000000000000000000 PUSH1 0x44 DUP3 ADD MSTORE PUSH1 0x64 ADD PUSH2 0x5A6 JUMP JUMPDEST PUSH0 DUP4 GT PUSH2 0x6E4 JUMPI PUSH1 0x40 MLOAD PUSH3 0x461BCD PUSH1 0xE5 SHL DUP2 MSTORE PUSH1 0x20 PUSH1 0x4 DUP3 ADD MSTORE PUSH1 0x1B PUSH1 0x24 DUP3 ADD MSTORE PUSH32 0x526577617264207065722075736572206D757374206265203E20300000000000 PUSH1 0x44 DUP3 ADD MSTORE PUSH1 0x64 ADD PUSH2 0x5A6 JUMP JUMPDEST PUSH0 DUP3 GT PUSH2 0x733 JUMPI PUSH1 0x40 MLOAD PUSH3 0x461BCD PUSH1 0xE5 SHL DUP2 MSTORE PUSH1 0x20 PUSH1 0x4 DUP3 ADD MSTORE PUSH1 0x1B PUSH1 0x24 DUP3 ADD MSTORE PUSH32 0x4D617820636F6D706C6574696F6E73206D757374206265203E20300000000000 PUSH1 0x44 DUP3 ADD MSTORE PUSH1 0x64 ADD PUSH2 0x5A6 JUMP JUMPDEST PUSH0 PUSH1 0x2 PUSH0 DUP2 SLOAD PUSH2 0x742 SWAP1 PUSH2 0xAFC JUMP JUMPDEST SWAP2 DUP3 SWAP1 SSTORE POP SWAP1 POP PUSH2 0x77E PUSH1 0x1 PUSH1 0x1 PUSH1 0xA0 SHL SUB PUSH32 0x0 AND CALLER ADDRESS DUP9 PUSH2 0x9B7 JUMP JUMPDEST PUSH0 DUP2 DUP2 MSTORE PUSH1 0x3 PUSH1 0x20 SWAP1 DUP2 MSTORE PUSH1 0x40 SWAP2 DUP3 SWAP1 KECCAK256 DUP1 SLOAD PUSH20 0xFFFFFFFFFFFFFFFFFFFFFFFFFFFFFFFFFFFFFFFF NOT AND CALLER SWAP1 DUP2 OR DUP3 SSTORE PUSH1 0x1 DUP1 DUP4 ADD DUP11 SWAP1 SSTORE PUSH1 0x2 DUP4 ADD DUP10 SWAP1 SSTORE PUSH1 0x4 DUP4 ADD DUP9 SWAP1 SSTORE PUSH1 0x5 DUP4 ADD DUP1 SLOAD PUSH1 0xFF NOT AND SWAP1 SWAP2 OR SWAP1 SSTORE DUP4 MLOAD DUP10 DUP2 MSTORE SWAP3 DUP4 ADD DUP9 SWAP1 MSTORE SWAP3 DUP3 ADD DUP7 SWAP1 MSTORE SWAP2 SWAP1 DUP4 SWAP1 PUSH32 0xACC8AF125A04590AA6C8F9F7CD3F8F0980DE3AFC9A61983648C370539B7C84A SWAP1 PUSH1 0x60 ADD PUSH1 0x40 MLOAD DUP1 SWAP2 SUB SWAP1 LOG3 POP SWAP1 POP PUSH2 0x821 PUSH1 0x1 PUSH0 SSTORE JUMP JUMPDEST SWAP4 SWAP3 POP POP POP JUMP JUMPDEST PUSH0 DUP3 DUP2 MSTORE PUSH1 0x3 PUSH1 0x20 SWAP1 DUP2 MSTORE PUSH1 0x40 DUP1 DUP4 KECCAK256 DUP5 DUP5 MSTORE PUSH1 0x6 ADD SWAP1 SWAP2 MSTORE SWAP1 KECCAK256 SLOAD PUSH1 0xFF AND JUMPDEST SWAP3 SWAP2 POP POP JUMP JUMPDEST PUSH2 0x856 PUSH2 0x92C JUMP JUMPDEST PUSH1 0x1 PUSH1 0x1 PUSH1 0xA0 SHL SUB DUP2 AND PUSH2 0x87F JUMPI PUSH1 0x40 MLOAD PUSH4 0x1E4FBDF7 PUSH1 0xE0 SHL DUP2 MSTORE PUSH0 PUSH1 0x4 DUP3 ADD MSTORE PUSH1 0x24 ADD PUSH2 0x5A6 JUMP JUMPDEST PUSH2 0x888 DUP2 PUSH2 0x959 JUMP JUMPDEST POP JUMP JUMPDEST PUSH1 0x2 PUSH0 SLOAD SUB PUSH2 0x8AD JUMPI PUSH1 0x40 MLOAD PUSH4 0x3EE5AEB5 PUSH1 0xE0 SHL DUP2 MSTORE PUSH1 0x4 ADD PUSH1 0x40 MLOAD DUP1 SWAP2 SUB SWAP1 REVERT JUMPDEST PUSH1 0x2 PUSH0 SSTORE JUMP JUMPDEST PUSH1 0x40 MLOAD PUSH1 0x1 PUSH1 0x1 PUSH1 0xA0 SHL SUB DUP4 DUP2 AND PUSH1 0x24 DUP4 ADD MSTORE PUSH1 0x44 DUP3 ADD DUP4 SWAP1 MSTORE PUSH2 0x927 SWAP2 DUP6 SWAP2 DUP3 AND SWAP1 PUSH4 0xA9059CBB SWAP1 PUSH1 0x64 ADD JUMPDEST PUSH1 0x40 MLOAD PUSH1 0x20 DUP2 DUP4 SUB SUB DUP2 MSTORE SWAP1 PUSH1 0x40 MSTORE SWAP2 POP PUSH1 0xE0 SHL PUSH1 0x20 DUP3 ADD DUP1 MLOAD PUSH28 0xFFFFFFFFFFFFFFFFFFFFFFFFFFFFFFFFFFFFFFFFFFFFFFFFFFFFFFFF DUP4 DUP2 DUP4 AND OR DUP4 MSTORE POP POP POP POP PUSH2 0x9F6 JUMP JUMPDEST POP POP POP JUMP JUMPDEST PUSH1 0x1 SLOAD PUSH1 0x1 PUSH1 0x1 PUSH1 0xA0 SHL SUB AND CALLER EQ PUSH2 0x542 JUMPI PUSH1 0x40 MLOAD PUSH4 0x118CDAA7 PUSH1 0xE0 SHL DUP2 MSTORE CALLER PUSH1 0x4 DUP3 ADD MSTORE PUSH1 0x24 ADD PUSH2 0x5A6 JUMP JUMPDEST PUSH1 0x1 DUP1 SLOAD PUSH1 0x1 PUSH1 0x1 PUSH1 0xA0 SHL SUB DUP4 DUP2 AND PUSH20 0xFFFFFFFFFFFFFFFFFFFFFFFFFFFFFFFFFFFFFFFF NOT DUP4 AND DUP2 OR SWAP1 SWAP4 SSTORE PUSH1 0x40 MLOAD SWAP2 AND SWAP2 SWAP1 DUP3 SWAP1 PUSH32 0x8BE0079C531659141344CD1FD0A4F28419497F9722A3DAAFE3B4186F6B6457E0 SWAP1 PUSH0 SWAP1 LOG3 POP POP JUMP JUMPDEST PUSH1 0x40 MLOAD PUSH1 0x1 PUSH1 0x1 PUSH1 0xA0 SHL SUB DUP5 DUP2 AND PUSH1 0x24 DUP4 ADD MSTORE DUP4 DUP2 AND PUSH1 0x44 DUP4 ADD MSTORE PUSH1 0x64 DUP3 ADD DUP4 SWAP1 MSTORE PUSH2 0x9F0 SWAP2 DUP7 SWAP2 DUP3 AND SWAP1 PUSH4 0x23B872DD SWAP1 PUSH1 0x84 ADD PUSH2 0x8E0 JUMP JUMPDEST POP POP POP POP JUMP JUMPDEST PUSH0 DUP1 PUSH1 0x20 PUSH0 DUP5 MLOAD PUSH1 0x20 DUP7 ADD PUSH0 DUP9 GAS CALL DUP1 PUSH2 0xA15 JUMPI PUSH1 0x40 MLOAD RETURNDATASIZE PUSH0 DUP3 RETURNDATACOPY RETURNDATASIZE DUP2 REVERT JUMPDEST POP POP PUSH0 MLOAD RETURNDATASIZE SWAP2 POP DUP2 ISZERO PUSH2 0xA2C JUMPI DUP1 PUSH1 0x1 EQ ISZERO PUSH2 0xA39 JUMP JUMPDEST PUSH1 0x1 PUSH1 0x1 PUSH1 0xA0 SHL SUB DUP5 AND EXTCODESIZE ISZERO JUMPDEST ISZERO PUSH2 0x9F0 JUMPI PUSH1 0x40 MLOAD PUSH4 0x5274AFE7 PUSH1 0xE0 SHL DUP2 MSTORE PUSH1 0x1 PUSH1 0x1 PUSH1 0xA0 SHL SUB DUP6 AND PUSH1 0x4 DUP3 ADD MSTORE PUSH1 0x24 ADD PUSH2 0x5A6 JUMP JUMPDEST PUSH0 PUSH1 0x20 DUP3 DUP5 SUB SLT ISZERO PUSH2 0xA72 JUMPI PUSH0 DUP1 REVERT JUMPDEST POP CALLDATALOAD SWAP2 SWAP1 POP JUMP JUMPDEST PUSH0 DUP1 PUSH1 0x40 DUP4 DUP6 SUB SLT ISZERO PUSH2 0xA8A JUMPI PUSH0 DUP1 REVERT JUMPDEST POP POP DUP1 CALLDATALOAD SWAP3 PUSH1 0x20 SWAP1 SWAP2 ADD CALLDATALOAD SWAP2 POP JUMP JUMPDEST PUSH0 DUP1 PUSH0 PUSH1 0x60 DUP5 DUP7 SUB SLT ISZERO PUSH2 0xAAB JUMPI PUSH0 DUP1 REVERT JUMPDEST POP POP DUP2 CALLDATALOAD SWAP4 PUSH1 0x20 DUP4 ADD CALLDATALOAD SWAP4 POP PUSH1 0x40 SWAP1 SWAP3 ADD CALLDATALOAD SWAP2 SWAP1 POP JUMP JUMPDEST PUSH0 PUSH1 0x20 DUP3 DUP5 SUB SLT ISZERO PUSH2 0xAD2 JUMPI PUSH0 DUP1 REVERT JUMPDEST DUP2 CALLDATALOAD PUSH1 0x1 PUSH1 0x1 PUSH1 0xA0 SHL SUB DUP2 AND DUP2 EQ PUSH2 0x821 JUMPI PUSH0 DUP1 REVERT JUMPDEST PUSH4 0x4E487B71 PUSH1 0xE0 SHL PUSH0 MSTORE PUSH1 0x11 PUSH1 0x4 MSTORE PUSH1 0x24 PUSH0 REVERT JUMPDEST PUSH0 PUSH1 0x1 DUP3 ADD PUSH2 0xB0D JUMPI PUSH2 0xB0D PUSH2 0xAE8 JUMP JUMPDEST POP PUSH1 0x1 ADD SWAP1 JUMP JUMPDEST DUP2 DUP2 SUB DUP2 DUP2 GT ISZERO PUSH2 0x848 JUMPI PUSH2 0x848 PUSH2 0xAE8 JUMP JUMPDEST DUP1 DUP3 MUL DUP2 ISZERO DUP3 DUP3 DIV DUP5 EQ OR PUSH2 0x848 JUMPI PUSH2 0x848 PUSH2 0xAE8 JUMP JUMPDEST PUSH0 DUP3 PUSH2 0xB58 JUMPI PUSH4 0x4E487B71 PUSH1 0xE0 SHL PUSH0 MSTORE PUSH1 0x12 PUSH1 0x4 MSTORE PUSH1 0x24 PUSH0 REVERT JUMPDEST POP DIV SWAP1 JUMP INVALID LOG2 PUSH5 0x6970667358 0x22 SLT KECCAK256 SWAP15 0xC3 PUSH5 0xB7B7FC2D8 0xBB PUSH21 0xE9F07DC6047EAE832E71A3AE8E12F0AB6C0FCFC413 DUP11 PUSH5 0x736F6C6343 STOP ADDMOD NOT STOP CALLER "
    },
    "gasEstimates": {
      "creation": {
        "codeDepositCost": "592600",
        "executionCost": "infinite",
        "totalCost": "infinite"
      },
      "external": {
        "BPS_DENOMINATOR()": "238",
        "PLATFORM_FEE_BPS()": "217",
        "closePoll(uint256)": "30021",
        "completePoll(uint256,bytes32)": "infinite",
        "createPoll(uint256,uint256,uint256)": "infinite",
        "getPollCounter()": "2357",
        "getPollInfo(uint256)": "13224",
        "isNullifierHashUsed(uint256,bytes32)": "2635",
        "owner()": "2386",
        "platformTreasury()": "infinite",
        "polls(uint256)": "13195",
        "renounceOwnership()": "infinite",
        "transferOwnership(address)": "28374",
        "usdcToken()": "infinite"
      }
    },
    "methodIdentifiers": {
      "BPS_DENOMINATOR()": "e1a45218",
      "PLATFORM_FEE_BPS()": "539aa77f",
      "closePoll(uint256)": "9534e637",
      "completePoll(uint256,bytes32)": "51de23c5",
      "createPoll(uint256,uint256,uint256)": "de78433f",
      "getPollCounter()": "ecde1e00",
      "getPollInfo(uint256)": "29b8f44a",
      "isNullifierHashUsed(uint256,bytes32)": "df4db868",
      "owner()": "8da5cb5b",
      "platformTreasury()": "e138818c",
      "polls(uint256)": "ac2f0074",
      "renounceOwnership()": "715018a6",
      "transferOwnership(address)": "f2fde38b",
      "usdcToken()": "11eac855"
    }
  },
  "storageLayout": {
    "storage": [
      {
        "astId": 1172,
        "contract": "PollEscrow.sol:PollEscrow",
        "label": "_status",
        "offset": 0,
        "slot": "0",
        "type": "t_uint256"
      },
      {
        "astId": 480,
        "contract": "PollEscrow.sol:PollEscrow",
        "label": "_owner",
        "offset": 0,
        "slot": "1",
        "type": "t_address"
      },
      {
        "astId": 27,
        "contract": "PollEscrow.sol:PollEscrow",
        "label": "_pollCounter",
        "offset": 0,
        "slot": "2",
        "type": "t_uint256"
      },
      {
        "astId": 49,
        "contract": "PollEscrow.sol:PollEscrow",
        "label": "polls",
        "offset": 0,
        "slot": "3",
        "type": "t_mapping(t_uint256,t_struct(Poll)44_storage)"
      }
    ],
    "types": {
      "t_address": {
        "encoding": "inplace",
        "label": "address",
        "numberOfBytes": "20"
      },
      "t_bool": {
        "encoding": "inplace",
        "label": "bool",
        "numberOfBytes": "1"
      },
      "t_bytes32": {
        "encoding": "inplace",
        "label": "bytes32",
        "numberOfBytes": "32"
      },
      "t_mapping(t_bytes32,t_bool)": {
        "encoding": "mapping",
        "key": "t_bytes32",
        "label": "mapping(bytes32 => bool)",
        "numberOfBytes": "32",
        "value": "t_bool"
      },
      "t_mapping(t_uint256,t_struct(Poll)44_storage)": {
        "encoding": "mapping",
        "key": "t_uint256",
        "label": "mapping(uint256 => struct PollEscrow.Poll)",
        "numberOfBytes": "32",
        "value": "t_struct(Poll)44_storage"
      },
      "t_struct(Poll)44_storage": {
        "encoding": "inplace",
        "label": "struct PollEscrow.Poll",
        "members": [
          {
            "astId": 29,
            "contract": "PollEscrow.sol:PollEscrow",
            "label": "creator",
            "offset": 0,
            "slot": "0",
            "type": "t_address"
          },
          {
            "astId": 31,
            "contract": "PollEscrow.sol:PollEscrow",
            "label": "rewardPool",
            "offset": 0,
            "slot": "1",
            "type": "t_uint256"
          },
          {
            "astId": 33,
            "contract": "PollEscrow.sol:PollEscrow",
            "label": "rewardPerUser",
            "offset": 0,
            "slot": "2",
            "type": "t_uint256"
          },
          {
            "astId": 35,
            "contract": "PollEscrow.sol:PollEscrow",
            "label": "completedCount",
            "offset": 0,
            "slot": "3",
            "type": "t_uint256"
          },
          {
            "astId": 37,
            "contract": "PollEscrow.sol:PollEscrow",
            "label": "maxCompletions",
            "offset": 0,
            "slot": "4",
            "type": "t_uint256"
          },
          {
            "astId": 39,
            "contract": "PollEscrow.sol:PollEscrow",
            "label": "isActive",
            "offset": 0,
            "slot": "5",
            "type": "t_bool"
          },
          {
            "astId": 43,
            "contract": "PollEscrow.sol:PollEscrow",
            "label": "nullifierHashes",
            "offset": 0,
            "slot": "6",
            "type": "t_mapping(t_bytes32,t_bool)"
          }
        ],
        "numberOfBytes": "224"
      },
      "t_uint256": {
        "encoding": "inplace",
        "label": "uint256",
        "numberOfBytes": "32"
      }
    }
  },
  "userdoc": {
    "kind": "user",
    "methods": {
      "closePoll(uint256)": {
        "notice": "Close a poll (only creator can close)"
      },
      "completePoll(uint256,bytes32)": {
        "notice": "Complete a poll and receive USDC payout"
      },
      "createPoll(uint256,uint256,uint256)": {
        "notice": "Create a new poll with USDC escrow"
      },
      "getPollCounter()": {
        "notice": "Get the current poll counter"
      },
      "getPollInfo(uint256)": {
        "notice": "Get poll information"
      },
      "isNullifierHashUsed(uint256,bytes32)": {
        "notice": "Check if a nullifier hash has been used"
      }
    },
    "notice": "Manages USDC escrow for polls and executes payouts with platform fee",
    "version": 1
  }
}